:020000040800F2
:10000000F01A002081010008F13C0008B138000816
:1000100000000000000000000000000000000000E0
:10002000000000000000000000000000F53C000897
:100030000000000000000000F33C00083D40000804
:100040009301000893010008930100089301000840
:100050009301000893010008930100089301000830
:1000600093010008091A0008191A0008311A00083B
:100070009301000893010008930100089301000810
:100080009301000893010008930100089301000800
:1000900093010008930100089301000893010008F0
:1000A00093010008930100089301000893010008E0
:1000B00093010008930100089301000893010008D0
:1000C00000F002F800F030F80CA030C8083824180E
:1000D0002D18A246671EAB4654465D46AC4201D180
:1000E00000F022F87E460F3E0FCCB6460126334282
:1000F00000D0FB1AA246AB4633431847185A0000FB
:10010000385A00000023002400250026103A01D3AD
:1001100078C1FBD8520700D330C100D50B607047BF
:100120001FB51FBD10B510BD01F0CAF91146FFF78C
:10013000F7FF04F001FF01F0E2F903B4FFF7F2FF6B
:1001400003BC01F013FA000070B505460C461646D4
:1001500002E00FCC0FC5103E102EFAD2082E02D3AB
:1001600003CC03C5083E042E07D301CC01C5361FBE
:1001700003E021782970641C6D1C761EF9D270BDD5
:100180000748804707480047FEE7FEE7FEE7FEE72F
:10019000FEE7FEE704480549054A064B70470000A4
:1001A000C1400008C1000008F0140020F01A00202F
:1001B000F0160020F016002070B500252C46AD1A70
:1001C0009C4112DA00252C462D1A8C4102DA00F0EF
:1001D0002BF870BD002440428C41214600F024F8E9
:1001E000002440428C41214619E000252C462D1A5E
:1001F0008C410ADA002452429C41234600F014F854
:10020000002440428C41214670BD002452429C4152
:100210004042234600248C41214600F005F800248A
:1002200052429C41234670BDFEB5054610460C4621
:10023000184373D0AE468C460020AD1A01469C414F
:1002400067D36646002701243D46B61A9D4102D376
:1002500013463A462124654676462F04360C3E4323
:100260002D0CB61A9D4104D3150C1B042B4312040C
:100270001034654676462F06360A3E432D0AB61AD6
:100280009D4104D3150E1B022B4312020834654610
:1002900076462F0736093E432D09B61A9D4104D3F1
:1002A000150F1B012B431201241D65467646AF072F
:1002B000B6083E43AD08B61A9D4104D3950F9B0086
:1002C0002B439200A41C65467646EF0776083E4312
:1002D0006D08B61A9D411AD392185B41641C16E052
:1002E0000018764665464941B71A9D410191009034
:1002F00009D36046B11A98418E4684460098019908
:100300000025401C6941DD0752082A435B08641E32
:10031000E6D57246634603B0F0BDFFE70020014614
:10032000C046C0462A462346F5E70000034670B59E
:1003300002460B439B070FD10E4CE60100E008C2BA
:1003400008C91D1B9D433542F9D0D9B21170521C0A
:1003500000290DD01B0AF8E70B78491C1370521CBA
:10036000002B05D00B78491C1370521C002BF3D1C5
:1003700070BD000001010101421E5378521C002B88
:10038000FBD10B78491C1370521C002BF9D170471C
:10039000F8B5042A2CD3830712D00B78491C0370BC
:1003A000401C521E83070BD00B78491C0370401C65
:1003B000521E830704D00B78491C0370401C521E48
:1003C0008B079B0F05D0C91ADF002023DE1B08C94D
:1003D0000AE0FFF7B9FEF8BD1D4608C9FD401C46FE
:1003E000B4402C4310C0121F042AF5D2F308C91AD6
:1003F000521EF0D40B78491C0370401C521EEAD4E4
:100400000B78491C0370401C012AE4D40978017060
:10041000F8BD01E004C0091F0429FBD28B0701D5F8
:100420000280801CC90700D00270704700290BD0E1
:10043000C30702D00270401C491E022904D383075F
:1004400002D50280801C891EE3E70022EEE700222D
:10045000DFE7002203098B422CD3030A8B4211D31E
:1004600000239C464EE003460B433CD40022430845
:100470008B4231D303098B421CD3030A8B4201D335
:1004800094463FE0C3098B4201D3CB01C01A5241CD
:1004900083098B4201D38B01C01A524143098B421D
:1004A00001D34B01C01A524103098B4201D30B0106
:1004B000C01A5241C3088B4201D3CB00C01A52412B
:1004C00083088B4201D38B00C01A524143088B42F0
:1004D00001D34B00C01A5241411A00D20146524189
:1004E000104670475DE0CA0F00D04942031000D3A8
:1004F0004042534000229C4603098B422DD3030AFD
:100500008B4212D3FC22890112BA030A8B420CD30C
:10051000890192118B4208D3890192118B4204D335
:1005200089013AD0921100E08909C3098B4201D3B5
:10053000CB01C01A524183098B4201D38B01C01AEF
:10054000524143098B4201D34B01C01A5241030966
:100550008B4201D30B01C01A5241C3088B4201D315
:10056000CB00C01A524183088B4201D38B00C01AC2
:100570005241D9D243088B4201D34B00C01A524199
:10058000411A00D20146634652415B10104601D326
:100590004042002B00D54942704763465B1000D3B0
:1005A000404201B50020C046C04602BD70477047BA
:1005B000704700000246C80FC00781434B0030B5AA
:1005C0004B405B009B0D20D01923DB06C91801238B
:1005D0001B05994220DB0324A40704251346AB40E6
:1005E0000BD3002B04D1EB0613409B00E34204D451
:1005F00001246407002312195941FF231B05994266
:100600000BD2C9000143500F09E0CB0204D50143CE
:100610000803024305D0054830BDFF21C905084342
:1006200030BD084607210905884330BD0000C07F62
:10063000F0B50C46871A9C410D46861A9D4103D29F
:10064000C01BA141D21963410D0D1F0DC94EEC1BFA
:10065000AE435CD07F057F0D0026002F51D02D05C5
:10066000AC46A943DD020123ED0A1B051D432023EF
:100670001B1B24D41746E740381871412F46E7402A
:10068000CC199D402818314661410C0D27D1614499
:100690009A4013D50023401C594152000ED1400806
:1006A000400001224B005205D34207D305204007EA
:1006B000C14201D5B04900E0B0493046F0BD6B0001
:1006C000002A00D001229A181F23203C1B1B01D5B1
:1006D000002302E0E540281871410C0DD7D0012419
:1006E00024050919C407CD0740084908E40F284329
:1006F0006144002CD5D00024401C61419A40D0D1E7
:10070000CDE76A05520DD9D1C90FC907D5E79C4D70
:100710004E00002801D0012400E0002434195F00BD
:10072000002A01D0012600E00026BE19954FAC42F8
:100730000CD8AE420AD8B44206D001256D05EC4271
:10074000BCD010461946F0BD9942FCD00020394675
:10075000F0BDF0B51FB40C460F46811A9F412546E7
:10076000861A9D4106D20125ED076F40401ABC4113
:1007700052187B41210D1E0D8D1BAC467D4D8D43C6
:100780007ED075056D0D7CD00D05AE46AC431B03C8
:100790001B0B794D52429D41202366469B1B14D36F
:1007A0001746F740381800260090744160462F46DF
:1007B0000741E41900989D402818664116D47146F7
:1007C00071189A4025D5012320E093182A466A41E2
:1007D0005200002B00D0521C1E23203E9B1B002BDE
:1007E00061DD3541EE1728186641E8D500187641DD
:1007F0005B1C9A4000D3401C4B05F3181524E340C2
:1008000010D3002B52D071467118D30FC01802D3E9
:10081000491C05B0F0BD0123DB079A42F9D140081D
:100820004000F6E701225205B21801D1002853D04A
:100830000123CC0ADB029943891E002A08D1020C4D
:1008400003D0020C0004103902E0024600202039D7
:100850000023550B05D112020823550B01D152017B
:100860000D23550C01D112011B1DD50C01D1920095
:100870009B1C150D01D152005B1C2025EE1A01E0D6
:100880002CE022E00546F54015439840CA1AE107DE
:1008900069181305C918002ABBDA03204007081895
:1008A000C10FC9070FE071466118B2E7F1074008B0
:1008B0000843711071444A000CD001235B059A4231
:1008C000A7D2C90FC9070020A3E74905490D26D1C2
:1008D000002001E00028F4D100219AE7284D6600AD
:1008E000002801D0012100E0002171185F00002ADA
:1008F00001D0012600E00026BE19224FA94210D8DF
:10090000AE420ED8B14208D001256D05E94206D0AD
:100910001946A802414010467BE79C4201D021467F
:1009200077E70020394674E710B50C465C4005D5E2
:100930000124E4076340FFF70CFF10BDFFF778FECA
:1009400010BD30B40C465C4004D50124E40763407C
:1009500030BC6DE630BCFCE670B50124E4076140B4
:100960000D465D4002D4FFF763FE70BD6340FFF7A4
:10097000F0FE70BDFF0700000000F0FF0000F07FF8
:100980000000E0FF0000F87FF0B5F94D0C091E09EA
:100990002C402E402F468BB0A7437DD0B543FCD0D2
:1009A000002E7AD0002CFCD00D465D40ED0F254383
:1009B000AC1BFF25AD0464190894C502440DC9029F
:1009C0002143500DDC0204430120C00701430443CE
:1009D000D2020191200C110C00958C460104234693
:1009E0008B430A9161460904E24D8A430991010A49
:1009F0007D4449198039097805464D4301266D1813
:100A0000F605751B6943C90C640B891C4C436418BB
:100A1000B5012C1B250C2E04B4434C434D43210C33
:100A2000691889090591009DE90701D00121C907CD
:100A300004912C4601996708CD072F434C08059D6A
:100A4000E10B4D432D0C29466646754302950D4634
:100A500045432E46029D7D1BB44100950D465D43E6
:100A600001942C0C2F040D465543AE462D0C3D43EE
:100A7000029503947546049C2D04641B049406D2CD
:100A8000029C039D641C002675410395029401ACF1
:100A900070CC009F7D1B01E03EE162E1B44109049E
:100AA0000095079101940599A4086143090C0C462F
:100AB0004443650BE7040C4666467443A646640B44
:100AC0003C43039502947446049DE4042C1B049457
:100AD00006D2029C039D641C002675410395029476
:100AE00001AC70CC009F7D1BB44101940C465C436B
:100AF0000095650FE7000C465443A646640F3C433F
:100B0000039502947446049DE4002C1B049406D2C1
:100B1000029C039D641C002675410395029401AC60
:100B200070CC009F7D1BB441AE09AF06049DC90087
:100B3000AD092F43049DA406AD060495079D3443DB
:100B400069180791059DE10B4D432D0C294666461A
:100B5000754302950D4645432E46029D7D1BB441CB
:100B600000950D465D4301942C0C2F040D46554312
:100B7000AE462D0C3D43029503947546049C2D040E
:100B8000641B049406D2029C039D641C00267541DC
:100B90000395029401AC70CC009F7D1BB44101947D
:100BA0008C050694079C890A611800950791019CA1
:100BB0000599A4086143090C0D464543680BEF04F1
:100BC0000D46644665436C0B3C43049FED047D1B5E
:100BD000AC4602D20025641C6841009E019D371B73
:100BE00085410846584301950C46460FC5005443BD
:100BF000600F28436546E4002C1B02D20025401CF0
:100C00006E41019D3F1AB5412846BD098006284323
:100C10008446A009BF064E020699A406761807432B
:100C2000079D002068410A99079019430020099BFD
:100C300000906046FF1913434041E20F64003A43BD
:100C4000A4460446D71A8C41A04203D90120009043
:100C500020463A46C70F941840416246D20F2243BD
:100C6000644664000494009CBE466400D71AA446FF
:100C7000044602978C417746002F01D1A04204D947
:100C80006046401C8446029A2046C40FA64694182B
:100C90004041049A0546D20F224364466400D31AA9
:100CA0008D417146002901D1A84202D928461A4631
:100CB000641C10430122002800D01643610200206A
:100CC000079B891904465C410223002C02DB49186A
:100CD00013466441089DCE0A2D145D194B05670526
:100CE000E10A2C050D1908993E43C9076940002BFC
:100CF00008D0934006D30022761C5141002B01D12D
:100D0000760876001C4A002D43DB154241D0AA43E9
:100D10003FD030460BB0F0BD06180D464D41174C84
:100D20007642AC411AD395181C465C41134A6D4279
:100D3000A24113D3012252054C00D4420AD15C00D7
:100D4000D4420BD04B4002D592021143E2E7490056
:100D50004908DFE75940C90FC90718E000200849D2
:100D6000D8E7054801420DD10342F7D0F2E7000071
:100D70000000FF079E4F00000000F07F0000E0FF32
:100D80000000F87F114859400143C0124140002043
:100D9000C0E70123089A9B069A4205DC032252070A
:100DA0008918C90FC907B5E7052252078918074AEC
:100DB0001143D2125140ADE770B515461C460246AC
:100DC0000B4628462146FFF7DFFD70BDFFFFFF7F82
:100DD00030B50346CA02400D1043164D164C0A1595
:100DE00002D02043002A06DBAA1A002A12DDD040D6
:100DF000FF2A0BDC30BD5205520D01D140004008E6
:100E0000AA1A07D4D0404042FF2A01DD002030BD9D
:100E10000028FCDD4A00002B01D0012000E000206A
:100E2000101801225205D042F0D8C817C0436040C4
:100E300030BD00001E040000000000800346CA020E
:100E4000400D10B510430A1504D00124E4072043D7
:100E5000002A05DB0A4CA21A04D4D040FF2A00DD88
:100E6000002010BD4A00002B01D0012000E000202E
:100E7000101801225205D042F2D8C817C04310BD45
:100E80001E0400001F22030C02D10F22000402D016
:100E9000030E03D004E00020014670470002083A28
:100EA000030F01D10001121F830F01D18000921E98
:100EB000002801DB4000521E120551184205C012E5
:100EC000411810467047C10FC90700D040420122A7
:100ED00092071143D6E701218907D3E7F0B58B4C80
:100EE0000F09254689B0BD437BD01D092646AE4378
:100EF000FAD00E465E402740F60F3E43254071D0A3
:100F000024012142FBD0FF24AD19A4042D1B03951D
:100F100001252D05DB02DB0AC9022B43C90A29433F
:100F20001E010901040F130F050121431701880B4E
:100F3000820391432D098C46A90B1E438A039543D6
:100F4000B30B9A0396433F09BA0B9403A743029647
:100F50002E467E430497B6464E19D7190C46019685
:100F6000544305977E43371B7646BF1B3601B64672
:100F7000BE0B361900967646BC043719009C01D387
:100F8000641C00946400002F01D001263443029EAB
:100F9000049F754366467E430496760034196E00BE
:100FA00034190094029C019E1C196643751BAE46C1
:100FB000069465464519059C05956C43594375464D
:100FC0000891691A0191049E01465143A41B0491A2
:100FD000611A009C0791E10605D0610901221143C5
:100FE00002E072E06EE06109089D00272C0A2D06E0
:100FF0006918049D7C412A0A2D066918019D6241E9
:10100000AC0DAD026D185441079A910D920255191D
:101010006141029A644658435443069B059A5A43D9
:10102000121A131B9A0E9B015B187A41010B0005E3
:10103000C3185141220A200644195A419A4200D24B
:10104000491C01204002814203D315230226F643A6
:1010500002E014230326F6432020C51AA9401746B0
:10106000AF40DA400A4320460399D8400914731868
:1010700019055118039A3843D2075140AC4009D0A2
:101080000122944006D30022401C5141002C01D182
:10109000400840001E4A934212D301220398920650
:1010A000904207DB0520400709181A480143C01287
:1010B000414004E0032040070818C10FC907002081
:1010C00009B0F0BD0020F107FAE705180C464C41C5
:1010D00011486D42A04115D394181A465A410E4842
:1010E000644290410ED301204A004005824209D358
:1010F0005A00824206D35940C90F084AC907002046
:101100001143DDE700200649DAE700000000FF0791
:10111000FE070000FFFFFF7F0000E0FF0000F07F00
:101120000000F87F70B505464800440D124B0020C2
:10113000002C0AD0634008D09A4206DA6642B242D6
:1011400003DD12054019514170BD002C08D0002B61
:1011500009D0C90FC907002AF6DB084A114370BD40
:10116000C90FC90770BD28460A03104302D00020EA
:10117000034970BD284670BDFF0700000000F07FE6
:101180000000F87F0121C9050123411842001B0618
:10119000D3185B0E0AD0C1100722D2068918400767
:1011A0005242D14201D5520089187047090208D530
:1011B0000146002A03D0C10FC9070020704710461E
:1011C0007047420202D000200249704707210905FA
:1011D0000143F4E70000F87FF0B5FF252D04C609B0
:1011E000C209FF2704462E400137CB093E43484041
:1011F0002A402B400746002A6BD0002B69D0AA4218
:1012000067D0AB4265D0002800DA32460125ED05F3
:1012100029432C4309022002090AD21A4B0C7F24CD
:10122000E31A434C000A7C44E35C7D242404121935
:1012300014145B00A218884201D3521C00E0400045
:1012400049420C465C4324115C43DB016415E318FE
:10125000040A5C43C502200D0C4644436419250A68
:101260005D432303EC0C0D46654300030019EB18A6
:101270004C42A34201D35B18401CD4052018002B1C
:1012800007D05B00C91804D3401C002901D14008D5
:1012900040003F2189048A4209D3002A08DC110654
:1012A000090F04D0032149074018C00FC007F0BD43
:1012B00001224100120689187F2252069142F6D27D
:1012C00005214907C84201D59010F0BDFF20C00597
:1012D000F0BD002F00DA32461648AA4207D2AB42D0
:1012E00005D21902090E17D0F80FC007F0BDFF256F
:1012F00063002D06AB42F9D84900A942F6D8AB42AB
:1013000001D1A942F2D0A94201D1002101E061003E
:101310004908D0050843F0BD1102090EFBD0FF209B
:101320000243D005F0BD0A460146104654E70000CE
:10133000E84700000000C07F10B501469E2400026F
:10134000CA15A307002A02D01843002A04DBA21AF8
:10135000002A0CDDD04010BD1206120E01D1400053
:101360004008A21A03D4D04040420028F3DDFF22F7
:1013700048001206904201D9002010BDC817C04392
:10138000584010BD0102C21504D00123DB071943E8
:10139000002A0ADB9E239A1A02D40846D0407047DE
:1013A000FF2241001206914201D900207047C01768
:1013B000C04370471F22030C02D10F2200041CD02F
:1013C000030E01D10002083A030F01D10001121FE0
:1013D000830F01D18000921E002801DB4000521EC5
:1013E000D2055118021251181922904004D3491CF9
:1013F000002801D14908490008467047C10FC907B4
:1014000000D04042012292071143D3E7012189070E
:10141000D0E7000010B5FF231B0644009C421DD8F6
:101420004C009C421AD80346124A0B4307D4401A78
:1014300002D3EFF3008010BDEFF3008010BD081A57
:1014400006D2EFF3008001219043C907084302E070
:10145000EFF30080904380F3008810BD0D231B0440
:101460001A4204D01146002000F006F810BD00F02A
:101470001BF810BD00000090C80212D54803400FB1
:10148000002804D0C803C043012188407047EFF30F
:1014900000800001000903210907084380F3008848
:1014A000704700207047000010B5024800F02FF888
:1014B00010BD00000000C07F004870478C14002061
:1014C0007546FFF7F9FFAE46050069465346C0086A
:1014D000C000854618B020B5FEF75CFE60BC002752
:1014E0004908B6460026C0C5C0C5C0C5C0C5C0C5F0
:1014F000C0C5C0C5C0C5403D49008D46704710B548
:101500000446C046C0462046FEF717FE10BD10B583
:101510000C461107090F092904D00A290AD0082905
:101520000CD104E011460820FFF7A6FF06E05106A3
:1015300006D501E0510601D50120C007214610BDA6
:10154000D10607D501010909CC084907000E00069C
:10155000044309E0410F20024907000A0143200E1D
:1015600000061D22D14101430846E7E70149182042
:10157000ABBEFEE726000200704770B58C180578F8
:10158000401C6B075B0F01D10378401C2A1106D168
:101590000278401C03E00678401C0E70491C5B1E5C
:1015A000F9D12B0705D40023521E0DD40B70491C12
:1015B000FAE70378401CCB1A921C03E01D780D70EB
:1015C000491C5B1C521EF9D5A142D8D3002070BD26
:1015D000F8B55C4C5C4D6078002600282AD1A868DC
:1015E000FFF7AAFE07466868FFF7A6FE07432868CC
:1015F000FFF7A2FE074328D054484178002902D0C3
:101600008078002802D0002211460CE04D48504955
:10161000B8300068884218DD01206070E6616068BB
:10162000A0640122A0604748603003F0EFFE6078BC
:1016300000280AD0A0691D2808DA4248012244493E
:10164000603003F0E3FE6068A064F8BD4148417873
:10165000002902D08078002831D0A868FFF792FED8
:10166000E121074609014F436868FFF78BFE3C21E3
:1016700048433F182868FFF785FE3F187D20C000CB
:10168000304D4743B83527623149286804F0FCF8EB
:101690003149FFF7A1FDFFF74FFE002800DA404275
:1016A000284960624831384603F000FC002828D001
:1016B000E769606A874207DB012200211AE0667051
:1016C00001220021E66137E0FF202968C005C14200
:1016D00001D2012001E00020C043FFF78FFE0090FF
:1016E000B80038182330FFF789FE009904F03CF861
:1016F000014601221348603003F088FEE069401C77
:10170000E061606AE769401C8742D8DAFF202968F7
:10171000C005C14201D2012001E00020C043FFF713
:101720006DFE0446B80038182330FFF767FE2146E7
:1017300004F01AF8002201460248603003F066FE09
:10174000F8BD0000100000203C0200208C010020A9
:101750000000F0419C0100200000A04070B50D4643
:1017600006460968006803F0D5FF2AD016480068CD
:10177000012802D0022824D10DE0144C2068FFF784
:10178000DBFD0146002003F01BFA6068FFF7D4FD83
:101790000146012013E00E4CA068FFF7CDFD014685
:1017A000022003F00DFA6068FFF7C6FD0146032032
:1017B00003F006FA2068FFF7BFFD0146042003F09E
:1017C000FFF92868306070BDEC000020C8000020E0
:1017D0003C02002010B57D20C000174903F066FBD5
:1017E000002827D001208007416A134C443C6069DF
:1017F000884204D9114AD268101A401800E0081A29
:101800006161FFF703FE0E49FFF7E6FC0D4903F0A7
:10181000ABFFFFF7B7FC0C4A0C4BFFF75FFBFFF782
:10182000D7FAFFF750FB0A4A0A4BFFF7ADF8FFF76C
:10183000CFFAA06110BD000054000020E802002093
:101840000000A04100008442182D4454FB210940AF
:10185000666666666666394070B515497D228B6896
:10186000D20098420CD201240C700024651E21463F
:10187000EB1AA141181861412346FEF79DFC08E0D0
:101880000978002901D00B4803E0C01A1146FEF781
:10189000E0FD3C21FEF7DDFD054CB834A1603C21A4
:1018A000FEF7D7FDE1603C21FEF7D3FD216170BD5D
:1018B00010000020FF297515FFB583B004460020F5
:1018C0000E9F0F9E009078781D4600283FD0FF2085
:1018D0003946F530083103F0E9FA002837D00C9981
:1018E0000020086046480068B8600D9800281AD0AB
:1018F0002846FFF783FD01902768394603F034FF3F
:10190000FFF740FC00223F4BFFF70EF8FFF760FAAD
:101910000A21FEF7A8FD0A20401AFFF76FFD019982
:10192000FFF75AFC09E027683846FFF705FD29460E
:10193000FEF799FD681AFFF761FD394603F0A4FE32
:101940002060049903F068FF01D804982060707843
:10195000002853D03146FF200831F53003F0A6FAB5
:1019600000284BD00C990020086025480068B06022
:101970000D9800281DD02846FFF740FD2168064637
:101980000D4603F0F1FEFFF7FDFB00221D4BFEF7B5
:10199000CBFFFFF71DFA0A21FEF765FD002900D1F4
:1019A0000A210846FFF72AFD3146FFF715FC2946B4
:1019B00017E001202668C0058642304608DBFFF7A5
:1019C000BBFC2946FEF74FFD080007D1284605E07D
:1019D000FFF7B2FC2946FEF746FD681AFFF70EFD39
:1019E000314603F045FF20600099059803F04CFE56
:1019F000216803F011FF01D80598206007B0F0BD01
:101A0000140000200000E03F10B5024800F001FA89
:101A100010BD00008807002010B5034800F0F9F958
:101A2000024800F0F6F910BD980800205408002084
:101A300010B5034800F0EDF9024800F0EAF910BDD6
:101A400010080020CC07002010B5044600680549A6
:101A500040181421FEF7FDFC800020640248E0637A
:101A600010BD0000F8FFFDBF0000024030B5056C5E
:101A70000124AC40C56B6C60046863604368102B44
:101A8000036803D099600068C26030BD9A60006846
:101A9000C16030BD72B6FEE7F8B5002504462034BB
:101AA0000095227D012A3BD00122227503689E68A1
:101AB000760776D43F4F4E68BE4254D09E6A0F7868
:101AC000BA4016439E620123C26A1B079A421FD086
:101AD000012A1DD0022A1BD0032A19D0042A17D0AC
:101AE000052A15D0062A13D0072A11D002688B6860
:101AF00056697607760FB3420AD05369DB08DB00DC
:101B00005361006842690B7A5B075B0F1A434261BD
:101B10000868102806D0112804D0122802D045E009
:101B20000220F8BD244A9368102809D011280AD051
:101B300001200006034393600868102806D035E0B2
:101B40000120C005F6E701208005F3E71C481B498A
:101B50000068FEF77EFC0A21484300E0401E00902A
:101B60000028FBD122E0986A0E78B2409043986238
:101B70000868102803D0112801D0122816D10E4968
:101B80008A68102807D0112808D001200006824357
:101B90008A600BE005E00120C005F8E70120800520
:101BA000F5E7816B20221143816301250020207518
:101BB0002846F8BD011000000027014040420F00F8
:101BC00038020020F8B500260446002805D0A06B96
:101BD00025462035002802D007E00120F8BD00206E
:101BE000E0632875204600F0A9F8A06B1022C0061B
:101BF000002870DB2068816849076CD4A16B130151
:101C0000994302231943A16381688907890F012938
:101C100005D10168C9070FD1C16809040CD4C16896
:101C200018239943A3681943C16020680169636858
:101C300089008908194301612068C1683D4B19403A
:101C4000C160207E617E8003C9030843A17E4B03EF
:101C50001843A36A012B02D001231B0300E00023D9
:101C60001843E36818432369022B09D00023184363
:101C70002B79E57E5B0018430123012D02D00AE099
:101C80000423F4E7002927D0A16B20252943A16371
:101C9000E16B1943E163E1690D46FF3DC23D02D0AE
:101CA000256A294308432168CD680543CD60012595
:101CB000E16A2D07A94213D0012911D002290FD0C2
:101CC00003290DD004290BD0052909D0062907D0F6
:101CD000072905D010E028E0012109040843DAE7CC
:101CE00021684D69ED08ED004D6121684D69A78DB2
:101CF0007F077F0F3D434D612168C9680E4D294024
:101D0000814207D10020E063A06B80088000401C66
:101D1000A06308E0A06B022188431043A063E06B3E
:101D20001843E06301263046F8BDA06B1043A06362
:101D3000F8E700001902FEFFE7FF3F8370B586B0A9
:101D4000064614216846FEF782FB1A49306888422D
:101D50002ED119498A69401502438A618A69024075
:101D600005924A69800202434A614969002501409F
:101D700005910F20009003200190694602950F48BD
:101D800000F07AF90E480F4C21C480202560606075
:101D90004000A060256180006561E0600948083C62
:101DA00000F086F8002801D0FFF774FE3463666205
:101DB00006B070BD00240140001002400008004839
:101DC000080002408807002070B504001FD020687A
:101DD0000168490849000160206800250560206805
:101DE0004560206885602068C5602046FFF72CFEAE
:101DF000216C01208840E16B4860A562E5622563A3
:101E00006563A563203465702570002070BD0120D6
:101E100070BDF0B4C16B0D6801680C680422066CDB
:101E20001346B3402B420DD063070BD50B689B06BE
:101E300002D40B6893430B60016C8A40C16B4A600B
:101E4000C16A19E00227B74002462F400123203221
:101E5000002F15D0A70713D50C68A40604D40C686E
:101E60000A25AC430C605370036C02219940C36B8C
:101E7000596000211170816A002916D0F0BC084712
:101E80000827B7402F4210D024070ED50C680E2526
:101E9000AC430C60046C1946A140C46B6160836361
:101EA000537000211170016BE6E7F0BC7047000031
:101EB00070B5040021D00221204620300546417033
:101EC000226811680E48A3680140606826691843BB
:101ED000E3683343184363691843A3691843E3690C
:101EE0001843084310602046FFF7AEFD0021A163B0
:101EF000012068702970084670BD012070BD000087
:101F00000FC0FFFFF8B504468C462030017800254D
:101F1000012909D00126067041780027012905D042
:101F2000077002252846F8BD0220F8BD0221417045
:101F3000A76320680168490849000160614620469E
:101F4000FFF794FDE06A00282068016802D00E22A5
:101F5000114306E00A22114301602068016804224F
:101F6000914301602068016831430160DAE70000B5
:101F700070B5044600F066F90546601C02D00448BE
:101F80000078241800F05EF9401BA042FAD370BD1F
:101F90002C020020F0B500225DE0012393401C4696
:101FA0000C4057D096082E4DB6007519AF68AC4658
:101FB00095072E0F0F25B540AE463D400927FF0679
:101FC000B84201D1002714E0264FB84201D10127C1
:101FD0000FE0254FB84201D102270AE0234FB84253
:101FE00001D1032705E0224FB84201D1042700E0C8
:101FF0000527B740AF4212D11E4D2E68A6432E6072
:102000006E68A6436E60EE68A643EE60AE68A643B7
:10201000AE606546AD687446A5436446A560056834
:1020200056000324B440A5430560D508AD002D1823
:102030002E6AAC465507EF0E0F25BD40AE436546F0
:102040002E62C568A543C56045689D4345608368A9
:10205000A3438360521C0B46D3409ED1F0BD0000C9
:10206000000001400004004800080048000C00483F
:102070000010004800040140F8B5002303240125A6
:10208000BFE02E469E40B44632407CD00E79B60763
:10209000B60F012E01D0022E17D186682746B6460C
:1020A0005E00B74000967646BE43B646CF68009EB7
:1020B000B74076463743876046686746BE430F7928
:1020C000FF06FF0F9F40374347600E79F643B60780
:1020D0000ED0C6682746B4465E00B646B740664690
:1020E000BE43B4468F687646B74066463743C760FE
:1020F0000E79B607B60F022E14D1DE08B6003618D8
:102100000096366A5F07B446FE0E0F27B646B74004
:102110006646BE43B4460F697646B74066463743C7
:10212000009E376206682746B4465E00B646B74052
:102130006646BE430F79B446BF07BF0F7646B74029
:102140006646374307604E68B603B60F58D0304F27
:10215000BE692E43BE61BE699F08F607F60F2D4E7D
:10216000BF00BE190096B6680F27B4469E07360F0B
:10217000B646B7406646BE430927FF06B446B84296
:1021800002D1002715E03BE0234FB84201D10127DF
:102190000FE0224FB84201D102270AE0204FB84297
:1021A00001D1032705E01F4FB84201D1042700E009
:1021B00005277646B74066463743009EB7601A4EFD
:1021C000B6684F689643FF0200D51643164FBE60AF
:1021D000FE684F689643BF0200D51643124FFE605B
:1021E0007E684F689643BF0300D516430E4F7E604E
:1021F0003E684F689643FF0300D516430A4A1660AF
:102200005B1C0A681646DE4000D03AE7F8BD0000C5
:10221000001002400000014000040048000800488F
:10222000000C00480010004800040140006908400C
:1022300000D001207047002A01D08161704781627F
:102240007047000001488068704700002C020020A1
:1022500070B5024640325378202B1CD11378012BE5
:1022600019D00123137024245470046825689D43F9
:102270002560046825681E03B54325600468256849
:102280000D432560006801681943016020205070EB
:102290000020107070BD022070BD70B50246403243
:1022A0005378202B1BD11378012B18D001241470E4
:1022B0002423537003681D68A5431D6005682B68BF
:1022C0000F263602B34309021943296000680168EA
:1022D00021430160202050700020107070BD02204A
:1022E00070BD000070B5040006D025464035687802
:1022F0000026002802D005E0012070BD2E70204687
:1023000000F04AF8242068702068016849084900F4
:1023100001600F216068090688432168086121680F
:102320008A680120C00382438A60E1680129A168AC
:1023300008D021229202114322689160E1680229AB
:1023400002D005E00143F7E701212268C90251608C
:1023500021684A680F4B1A434A602168CA68824361
:10236000CA60616920690843A169090208432168BC
:10237000C860216AE0690843216808602068016834
:102380000122114301606664202068702663AE70EC
:10239000002070BD0080000210B586B004461421F4
:1023A0006846FEF754F81349206888421FD1124C42
:1023B000616901208004014361616169014003207A
:1023C000059100020090122001900020029003204D
:1023D00003900120049069460848FFF74DFEE1692B
:1023E000012040050143E161E1690140059106B02A
:1023F00010BD0000005400400010024000040048DE
:102400000248816802788918816070472C02002098
:1024100010B506480168102211430160032000F046
:1024200007F800F027F8002010BD0000002002404F
:1024300070B504460D4D7D202978C000FEF709F8DF
:1024400001460B480068FEF704F800F015FC002870
:1024500009D1042C07D200222146401E00F02AF8A0
:1024600000206C6070BD012070BD00002C020020B7
:102470003802002008B508488169012211438161B2
:10248000816911400091C26901040A43C261C069B7
:102490000840009008BD000000100240002805DB45
:1024A000C106C90E0120884001490860704700003C
:1024B00000E100E010B502F0B9FC10BD10B5052335
:1024C000DB01C3180168012217249A666401002306
:1024D000001903704031888A10438882888A02225A
:1024E00010438882184610BDF0B585B0040007D0AF
:1024F000152040012618707A0025002803D006E038
:10250000012005B0F0BD3572204600F043F80320ED
:102510007072206802F090FA002101270CE0282058
:10252000484302191046203047720172C572956304
:10253000D563491CC9B2156460688842EFD800228F
:1025400010E02820504300190146FF3161314D72DF
:102550000A72CD726039FF3081308D67CD67521CB1
:10256000D2B2056060689042EBD821461422103147
:102570006846FDF7E9FD0FCC103C02F053FA242029
:1025800005557772E069012802D12046FFF796FFD2
:102590000020B6E708B500680649884208D1064819
:1025A000C2690121C9050A43C261C069084000909F
:1025B00008BD0000005C004000100240F8B5044671
:1025C0000068434DC00352D5E8690026C00007D417
:1025D000E96928040143E961E969014001260091A4
:1025E0003C480168C90510D4016882151143016097
:1025F000FFF728FE074604E0FFF724FEC01B64280F
:1026000024D834480068C005F6D5286A03273F025D
:10261000384020D06168394081421CD0286A2A6A3B
:10262000B843012109040A432A622A6A8A432A62BA
:102630002862C0070FD0FFF705FE009008E0FFF703
:1026400001FE0099411A2448814201D90320F8BDB6
:10265000286A8007F3D5286A6168B843084328626E
:10266000002E04D0E869012109078843E861207839
:10267000C00705D0286BA168800880000843286344
:102680002078800706D5286B032109048843E16878
:10269000084328632078800605D5286B10218843DD
:1026A0002169084328632068800305D5286B8021B1
:1026B0008843A169084328632088400505D5286B15
:1026C000402188436169084328630020F8BD000069
:1026D000001002400070004088130000F8B50F465B
:1026E00006005ED03C4D2868C007C00FB84209D232
:1026F000286840084000384328602868C007C00F99
:10270000B8424ED13068354C81070CD5400704D50E
:10271000606807210902084360606068F02188430F
:10272000B168084360603078C0072BD0706801281A
:1027300010D0022810D0032811D021688907002961
:102740002FDA61688908890001436160FFF77AFD2B
:10275000009010E0216803E021688901EFE7616BD8
:102760008903ECE7FFF76EFD0099411A1C4881428E
:1027700001D90320F8BD60680C2108407168890008
:102780008842EFD12868C007C00FB8420BD928682B
:1027900040084000384328602868C007C00FB8428E
:1027A00001D00120F8BD3078400706D560680721C8
:1027B00009028843F1680843606000F027F8616807
:1027C000084A0906090F515CC84007490860032000
:1027D000FFF72EFE0020F8BD00200240001002404E
:1027E000881300007A59000838020020044805497F
:1027F00000684968044A4905490F515CC840704760
:1028000038020020001002408A59000870B5154AAD
:1028100051680C200B4603401348042B05D0134D80
:10282000082B03D00C2B00D1284670BD8B02104C16
:102830001B0FE45CD26A0E4B1207120F1033C90350
:102840009A5C890F022901D0032901D0002301E0FD
:10285000002328460021FDF7E7FC214602F0C0FADC
:1028600070BD00000010024000127A00006CDC0213
:102870005A590008FEB5040070D02078F94EFA4D80
:10288000C00748D068680007800F01281FD068681B
:102890000007800F022804D16868C003800F022857
:1028A00015D06168012919D001208004002901D0C8
:1028B000052917D02968B143296029688143296017
:1028C000606800281BD0FFF7BDFC074613E02868AE
:1028D000800320D560680028CED01CE028683043F3
:1028E0002860EDE7296801432960F7E7FFF7AAFCB4
:1028F000C01B642870D828688003F7D50BE0FFF769
:10290000A1FC074604E0FFF79DFCC01B6428F1D83A
:1029100028688003F7D4207880073FD568680007CF
:10292000800F14D068680007800F022804D16868FF
:10293000C003800F01280AD0E068002828681ED054
:10294000012108432860FFF77DFC07460CE028685A
:1029500080070CD5E068012800D108E080E1FFF78E
:1029600071FCC01B0228C5D828688007F7D52868E5
:10297000F82188432169C900084328600EE0400817
:1029800040002860FFF75EFC074604E0FFF75AFCB2
:10299000C01B0228AED828688007F7D4207800072B
:1029A00023D5E0690028686A0FD0012108436862D6
:1029B000FFF748FC074604E0FFF744FCC01B022871
:1029C00098D8686A8007F7D50FE040084000686231
:1029D000FFF738FC074605E0C3E0FFF733FCC01BF8
:1029E000022887D8686A8007F7D420780427400730
:1029F000002861DA00200190E869C00008D4E96984
:102A0000B8060143E961E9690140012000910190A4
:102A100096480168C90511D4016882151143016007
:102A2000FFF710FC009005E0FFF70CFC0099401A3E
:102A3000642898D88D480068C005F5D5A06801289D
:102A40000AD0002801D0052811D0286A400840008B
:102A50002862286AB84302E0286A012108432862F4
:102A6000A068002812D0FFF7EDFB00900AE0286A6A
:102A700038432862F0E7FFF7E5FB0099411A7C48EC
:102A800081426ED8286A8007F5D50DE0FFF7DAFBA2
:102A9000009006E0FFF7D6FB0099411A7448814286
:102AA0005FD8286A8007F5D40198002804D0E96926
:102AB000012000078143E9612078C00635D56069AF
:102AC00001280CD0401D686B24D038436863686BC4
:102AD000400840006863FFF7B5FB074622E0686BDB
:102AE00038436863686B012108436863FFF7AAFBFA
:102AF000074604E0FFF7A6FBC01B022831D8686B2D
:102B00008007F7D5686BF8218843A169C90008439D
:102B100068630AE0B8436863F4E7FFF793FBC01B00
:102B200002281ED8686B8007F7D42078800637D536
:102B300068680007800F032814D068680007800FBA
:102B4000022804D16868C003800F03280AD0206AD5
:102B50000028686B16D030436863FFF773FB0646A6
:102B60000CE062E0686B80031AD5206A012877D1F7
:102B700016E0FFF767FB801B022856D8686B8003BE
:102B8000F7D50DE0B0436863FFF75CFB064604E051
:102B9000FFF758FB801B022847D8686B8003F7D4E7
:102BA000606A002866D069680907890F022942D047
:102BB000012636060228286805D0B0432860FFF7B2
:102BC00041FB044633E0B0432860FFF73BFB074678
:102BD00004E0FFF737FBC01B022826D828688001D5
:102BE000F7D4E86A216B000900010843E862A16A92
:102BF000E06A084369687B22D20391430843686016
:102C0000286830432860FFF71DFB044604E0FFF707
:102C100019FB001B022808D828688001F7D529E095
:102C2000FFF710FB001B022801D90320FEBD286816
:102C30008001F5D41EE00128F8D06868E96A032213
:102C4000D203A36A02409A420AD10907226B090FF4
:102C5000914205D10F2189040840E16A884209D0D8
:102C60000120FEBD00000100001002400070004085
:102C7000881300000020F4E7094910B5401E88427F
:102C800001D9012010BD074C60610321081F02F02B
:102C9000CDF80020A06107202061002010BD0000B9
:102CA000FFFFFF0000E000E0F0B502462032137F96
:102CB000012B21D00125157702235377066874680C
:102CC000B3687027BC430F682743776000680B4CDC
:102CD000A04208D0AC07A04205D0094CA04202D0C7
:102CE000084CA04204D180244968A3431943816061
:102CF000557700201077F0BD0220F0BD002C014078
:102D0000000400400040014070B5040005D0254695
:102D10002035687F002802D006E0012070BD002029
:102D20002877204600F014F802206877211D2068DB
:102D300001F0C8F901204034A071A877E87720702D
:102D40006070A070E070207160716877002070BDC5
:102D500010B586B0044614216846FDF778FB0122C1
:102D600021689207154891421DD1C1690122114382
:102D7000C161C169114005914269012149040A43B9
:102D80004261406908400590202002210090002007
:102D9000039001910291049109206946C006FFF752
:102DA0006BF906B010BD064A9142FAD1C269891585
:102DB0000A43C261C06908400590F2E70010024072
:102DC00000200040014620314A7F012A01D0012025
:102DD000704702224A770268D36801210B43D3600F
:102DE00000680B4A904208D08A07904205D0094AF1
:102DF000904202D0084A904204D182685207520F92
:102E0000062A02D002680A430260002070470000D0
:102E1000002C01400004004000400140F8B5054688
:102E200004462035287F0026012817D00120287766
:102E300002206877226890687727FF23B8431B0237
:102E4000984390600868502838D00EDC20284FD076
:102E500006DC00284CD010281ED149E00220F8BD25
:102E6000302845D0402817D13AE060282ED070286D
:102E700019D001221203801A0FD090420CD1CB68D6
:102E80004A688968206801F074F920688168012225
:102E900092031143816000E0012601206877002041
:102EA00028773046F8BDCB684A688968206801F009
:102EB00060F92168886838438860EEE7CA68496825
:102EC000206801F065FA5021206806E0CA68496868
:102ED000206801F06EFA6021206801F055F9DCE706
:102EE000CA684968206801F053FA40212068F4E775
:102EF000226801461046F0E770B586B004461421FA
:102F00006846FDF7A4FA164E2568092000231549E6
:102F100072130224C006B5420CD14D6915434D61B0
:102F20004969029311400591402100910194039356
:102F300001210EE00C4EB5420FD14D6915434D6194
:102F40004969029311400591102100910194039366
:102F5000042104916946FFF78FF806B070BD0000A8
:102F6000000400400010024000200040F8B5064672
:102F700004462036307F00270D4601280ED0012060
:102F80003077002A0CD0042A1BD0082A2FD00C2A14
:102F90003ED00127002030773846F8BD0220F8BD2A
:102FA000206801F0F9F820688169082211438161E5
:102FB0002068826904218A438261206881692A69C4
:102FC00012E0206801F02CF9206882690121C90211
:102FD0000A438261206881690122920291438161E2
:102FE000206881692A69120211438161D2E7206851
:102FF00001F056F92068C16908221143C1612068B7
:10300000C26904218A43C2612068C1692A6912E049
:10301000206801F087F92068C1690122D2021143BA
:10302000C1612068C269012189028A43C2612068A6
:10303000C1692A6912021143C161ABE770B504008E
:1030400005D025462035687F002802D006E0012003
:1030500070BD00202877204600F014F80220687721
:10306000211D206801F02EF801204034A071A877BE
:10307000E87720706070A070E070207160716877F0
:10308000002070BD08B500680549884207D1054891
:10309000C26902210A43C261C0690840009008BDAC
:1030A000000400400010024030B5044602232030E6
:1030B00000290AD004290DD02046403008290ED01E
:1030C0004278012A10D0012030BD827F012AFAD136
:1030D00083770AE0C27F012AF5D1C37705E0027841
:1030E000012AF0D1037000E043700122206801F052
:1030F00033F8144A20681449904207D0884205D01A
:10310000124B984202D0124B984204D1436C0125D5
:10311000ED032B43436420680123904207D09A07B4
:10312000904204D00B4A904201D0884204D1816879
:103130004907490F062902D00168194301600020A0
:1031400030BD0000002C014000400140004401401F
:103150000048014000040040704770B504001BD0D7
:103160002420E06720680168490849000160206860
:10317000002505602068456020688560204600F0D5
:1031800059F8204680304560E5670560256665662C
:1031900060342576002070BD012070BD10B5044656
:1031A000FFF7DBFF06492068884201D101F022FCCD
:1031B00004492068884201D101F028FC10BD0000BC
:1031C000003801400048004010B5040003D0E06F13
:1031D000002802D007E0012010BD00217820015511
:1031E000204600F053F82420E06720680168490871
:1031F00049000160204601F0B1FA0128ECD0606A74
:10320000002802D0204601F01FF9206841680922F9
:10321000D20291434160206881682A2291438160F3
:1032200020680168012211430160204601F072F913
:1032300010BD000010B50446104A016810489142C4
:1032400009D18169012292039143816103214902DD
:103250000920C00609E00B4A91420ED1C169012242
:1032600092049143C16130210748FEF793FE606FDD
:10327000FEF7AAFD206FFEF7A7FD10BD0038014044
:10328000001002400048004000080048F0B587B038
:10329000044614216846FDF7DAF8534F2668534870
:1032A0000223012103220025BE4249D187698E03F2
:1032B0003743876187693740059747694E0437432D
:1032C000476140690291304005905002009004919E
:1032D0000920019303926946C006FEF7CDFE4448DB
:1032E000444E21C63560B560F5603561802075615A
:1032F00070604048083EFEF7DBFD002801D0FEF775
:10330000C9FB3D4F3868391508433860666738484F
:1033100074623A4E143830601020B56070603561C8
:103320007561B5618020F561F0603046FEF7C0FD43
:10333000002801D0FEF7AEFB3868012149024CE0BD
:103340002F4FBE424DD1C7690126B6043743C7612E
:10335000C769374005974769760037434761406939
:103360000291304005903020049100900193039227
:1033700069462448FEF780FE1D48234E283821C6A2
:103380003560B560F56035618020756170601E48FC
:10339000083EFEF78DFD002801D0FEF77BFB164F9F
:1033A0003868B90208433860666711487462174E7E
:1033B0003C3830601020B560706035617561B56172
:1033C0008020F561F0603046FEF772FD002801D0E4
:1033D000FEF760FB386801218906084338602667DC
:1033E000746207B0F0BD00000038014000100240D8
:1033F00058000240CC0700200000014010080020C7
:1034000000480040000800485408002098080020A8
:1034100070B580231B58202B01D0022070BD0029DD
:103420000BD0002A09D0012483682403A34206D1CB
:103430000369002B03D1CB0701D0012070BD00230D
:103440000366046863681B020BD5EFF31083012544
:1034500085F3108825680126B6063543256083F379
:10346000108801F02BFA70BDF8B50746334D03689C
:103470000026012002220321314CAB422BD1A3694B
:10348000304D002B0AD0012B10D0022B14D0032B6F
:1034900015D0284601F092FEA6613EE02978022967
:1034A00001D1A0612EE00122264910E06878F028C1
:1034B00008D1A91CA26131E0A161E91C2EE0E878E5
:1034C000082801D0A661EEE70422A26132E0384666
:1034D000FFF79EFFF8BD1C4DAB42FBD1194D236A8F
:1034E0002435002B0AD0012B12D0022B18D0032B2D
:1034F00019D0284601F062FE26620EE029780129E3
:1035000002D120626D1C08E00E4901222431DEE761
:103510006878A52810D1AD1C226229460122D6E781
:10352000ED1C2162F9E7E878242805D20422001F67
:10353000226282B2291DCAE72662E5E7003801400F
:103540002C010020F8130020004800407047FFB510
:103550000446C06F83B017460D46202802D00220D3
:1035600007B0F0BD002D0BD0002F09D00120A168BD
:103570000003814206D12069002803D1E80701D069
:103580000120EDE70021842001512120E067FEF7B2
:1035900059FE264640360190378277820120A16885
:1035A0000003814202D12069002802D02F46002565
:1035B00011E000270FE000228021204601F0D4F91D
:1035C000002815D1002F17D02168387808857F1C76
:1035D000708A401E7082708A019B002806980090B5
:1035E000E9D100224021204601F0BEF900280AD08E
:1035F0002020E0670320B3E728882168C005C00DBC
:103600000885AD1CE4E72020E0670020A8E7000063
:103610000FB4F8B508A8007F00286FD06846954C15
:10362000017E2646857EB83E007F012919D00229F9
:1036300064D13146CD609049A13DC4C92146B83915
:1036400049682B0001F0E4FB17555B555B647E85F0
:103650007A7A7A7A7A7A7A7AA5ACB3BAC1C8D1E2A0
:103660007A00A12D36D0A32D3CD0B02D66D1FDF728
:10367000CDFE814DA8606846407FFDF7C7FE6860BB
:103680006846807FFDF7C2FE2860012001F042FA03
:103690000021052001F094FA2068FDF74DFE014657
:1036A000002001F08DFA6068FDF746FE014601201A
:1036B00001F086FAA868FDF73FFE04466868FDF74A
:1036C0003BFE04432868FDF737FE04430ED0032079
:1036D0003061C5E0FDF79AFE2060FDF72DFE014642
:1036E000002029E0FDF792FE606021E000203061BB
:1036F000BCE000280AD00122604873E01EE00028E8
:1037000002D001225E486DE00022FBE70022F3E7D1
:10371000002801D0012200E000225A484270816056
:103720002068FDF709FE0146002001F049FA6068B3
:10373000FDF702FE0146012001F042FAF8BC08BC88
:1037400004B01847002801D0012200E000224E48B2
:1037500048E048482C38C0690028EFD1464C022088
:1037600021460C31C4C101F0D5F9A068FDF7E4FD94
:103770000146022001F024FA6068FDF7DDFD0146F4
:10378000032001F01DFA2068FDF7D6FD0146042054
:10379000D2E7002801D0012200E000223B4821E0CE
:1037A000002801D0012200E0002239481AE0002858
:1037B00001D0012200E00022364813E0002801D0A9
:1037C000012200E0002234480CE0002801D0012250
:1037D00000E00022314805E0002801D0012200E08D
:1037E00000222F4842708160A8E723484169816028
:1037F00002694260C36803602A480EC0012001F0DC
:1038000089F90021052001F0DBF989E71A4D012033
:1038100029460C31C4C101F07DF90021052001F0D9
:10382000CFF92068FDF788FD0146002001F0C8F9B6
:103830006068FDF781FD0146012001F0C1F9A8682B
:10384000FDF77AFD04466868FDF776FD04432868B5
:10385000FDF772FD044305D006490320B83908611D
:10386000114804E003490020B83908610F4801F00D
:103870007DF963E7C80000203C020020AC01002075
:10388000BC0100209C0100208C010020CC01002004
:10389000DC010020EC010020FC0100200C020020D3
:1038A0001C0200207C070020E0870000FFFF0000D2
:1038B000FEE7000010B504460948C06902280DD093
:1038C0000849FA2001F0F2FA002807D00648C0693A
:1038D000002803D12146062001F072F910BD000036
:1038E0009C000020F00000207000002010B50A4865
:1038F000C06902280ED07D200849C00001F0D6FA28
:10390000002807D00648C069002803D100210720FD
:1039100001F056F910BD00009C000020F4000020CA
:103920007000002010B509480021816041600161EC
:10393000C160816141610162C16124210448FCF7D9
:1039400086FD24210348FCF782FD10BD0001002004
:10395000A00E0020DC0800200EB5002127480091B1
:1039600001910291244A4160026081600122042396
:103970000C300EC0017041708170FF23C170C233E2
:103980004360034681600833197102611838FEF7FD
:1039900019F9002801D072B6FEE70A200090012034
:1039A000000301900004029069461448FEF774F881
:1039B000002801D072B6FEE70B20009069460F4840
:1039C000FEF76AF8002801D072B6FEE70C200090DE
:1039D00069460A48FEF760F8002801D072B6FEE793
:1039E0000D20009069460548FEF756F8002801D0E2
:1039F00072B6FEE70EBD0000002401405402002014
:103A000030B587B014216846FCF721FD2148426992
:103A1000012149040A43426142690A400592426910
:103A200089000A43426142690A4005924269C9001D
:103A30000A43426142690A400592426909110A43F8
:103A4000426142690A400592426989000A43426123
:103A500040690124084005900F20009001946946B8
:103A600002940D48FEF708FB10200925ED06009092
:103A70000194694602942846FEF7FEFAE00300909E
:103A800000200190694602942846FEF7F5FA07B037
:103A900030BD0000001002400004004810B513487B
:103AA0001149016012494160002181600161416159
:103AB00081610122C161C2600162FEF713FC00282E
:103AC00001D072B6FEE700210848FEF7C1FB0028CE
:103AD00001D072B6FEE700210448FEF7DEFB0028A5
:103AE00001D072B6FEE710BD0054004094020020E1
:103AF0000E09002010B586B000240094012118485A
:103B000001940294039404948907059412C00460FC
:103B1000144984604160802101610838FFF7F4F89E
:103B2000002801D072B6FEE70120400300900F206C
:103B300003900194029469460948FFF76FF9002841
:103B400001D072B6FEE7049404A905480594FFF776
:103B5000ABF8002801D072B6FEE706B010BD000039
:103B6000E80200208813000010B58AB000240794F2
:103B70001C2168460894FCF76AFC1649164812C0D6
:103B8000046084601549046141600838FFF756FA03
:103B9000002801D072B6FEE7079407A90E480894E2
:103BA000FFF782F8002801D072B6FEE7602000908F
:103BB000019402940022694604940748FFF7D6F95D
:103BC000002801D072B6FEE70348FFF795F90AB066
:103BD00010BD00000004004030030020FFFF000083
:103BE00010B510480E4901604B21C9014160002108
:103BF0008160C16001618161C1610C220162426129
:103C00004162FFF7E1FA002801D072B6FEE7002218
:103C100011461B20FEF74EFC1B20FEF73FFC10BD9B
:103C2000003801407803002010B510480E490160AB
:103C30004B21C901416000218160C1600161816146
:103C4000C1610C22016242614162FFF7BDFA0028A6
:103C500001D072B6FEE7002211461D20FEF72AFCB5
:103C60001D20FEF71BFC10BD004800400004002092
:103C700030B51E4C91B025462069B83500282BD0B0
:103C8000012830D0022825D0032823D1FDF7A0FC3D
:103C90006868FDF751FB014614488C3001F0BEFA0C
:103CA000FDF798FD6068FDF7D7FDA069FFF702FEFC
:103CB000FFF71CFE00F08CF900F0C8FE06A801F02A
:103CC00047FA15220AA96846FCF73EFA06A80FC86B
:103CD000FFF79EFC11B030BD044800226030296817
:103CE00001F094FBD4E700202061F3E710000020EE
:103CF000FEE7704770470000F0B5214887B0C06903
:103D000000283BD100241F4804944178002904D0A6
:103D10008178002901D1022104911A4910314A7891
:103D2000002A04D08A78002A01D101220492164A7E
:103D30001268022A22D1154A154D1268B02A01D004
:103D4000B12A1BD104AF03910290124E0A232246DE
:103D50000097019410492846FDF7AEFD7F23DB054F
:103D600022460D4928460097019400F03BF9009443
:103D7000002329463046059AFDF7F0FC07B0F0BD58
:103D80009C000020CC010020EC0000201C00002042
:103D9000440200207C0700200000C642F0B5224803
:103DA00087B0C06900283DD100262048049641789C
:103DB000002904D08178002901D1022104911B49F6
:103DC00010314A78002A04D08A78002A01D10122D1
:103DD0000492174A1268022A24D1164A164D126814
:103DE000164CB22A01D0B32A1CD1241D04AF039172
:103DF00002900A232D1D3246009701961049204655
:103E0000FDF75AFD7F23DB0532460D49204600971A
:103E1000019600F0E7F80096002321462846059A0F
:103E2000FDF79CFC07B0F0BD9C000020EC010020D9
:103E3000EC0000201C0000207C0700203C02002039
:103E400000006C42F0B5214887B0C06900283BD122
:103E500000241F4804944178002904D08178002967
:103E600001D1022104911A4910314A78002A04D064
:103E70008A78002A01D101220492164A1268022A85
:103E800022D1154A154D1268B42A01D0B52A1BD18A
:103E9000134E04AF039102900A2322460097019427
:103EA00010493046FDF708FD7F23DB0522460D490A
:103EB00030460097019400F095F8009400233146B5
:103EC0002846059AFDF74AFC07B0F0BD9C0000208B
:103ED0000C020020EC0000201C00002084070020C1
:103EE0003C02002000006C42F0B5334889B0C06944
:103EF00000285FD1069031484078002805D02F482F
:103F00008078002801D1022006902C48103040789B
:103F1000002806D0294810308078002801D10120DF
:103F2000069027480068012844D12648FF260168EA
:103F30004F20A139244D254CC043C3360B0000F05F
:103F400067FF04030308083950271F4D1F4C322612
:103F500003E0B4270020241D2D1DFDF74FFA059026
:103F600004903846FDF74AFA014608901348134A70
:103F7000103006AB0027009302920390019733465E
:103F80002046049AFDF798FC0A213046FCF76BFAAC
:103F9000FDF734FA034606A8059A009008990197A0
:103FA000204600F01FF80023009721462846079A74
:103FB000FDF7D4FB09B0F0BD9C000020AC0100204F
:103FC000EC0000201C000020F8000020C8000020A9
:103FD00010B5FFF789FFFFF78FFEFFF7DFFEFFF752
:103FE00031FF10BDF8B50446069800270068164654
:103FF0000D4601280FD002280CD11946206801F087
:1040000043FB394601F040FB2946206001F004FCE7
:1040100000D82560F8BD1946206801F035FC394606
:1040200001F032FC054620603946304601F02CFB99
:10403000294601F0F1FBEDD82660F8BD10B5FEF77A
:10404000DFF910BD10B598B034216846FCF7FFF9D0
:1040500000241494159416941C210DA81794FCF7B1
:10406000F6F932200090012003900890059010206E
:104070000490069009946846FEF7FCFB002801D0E6
:1040800072B6FEE7072014900320159016940121C4
:10409000179414A8FEF722FB002801D072B6FEE7A1
:1040A00006480D900F94119413940DA8FEF786FA0C
:1040B000002801D072B6FEE718B010BD2100020042
:1040C00070470000F0B502681D4B0124A4071D4D88
:1040D000984203D0A04201D0A84203D17026B24337
:1040E0004E683243184E194F98420DD0A0420BD063
:1040F000A84209D0164CA04206D0B04204D0B84223
:1041000002D0144CA04204D103242402A243CC6860
:1041100022438024A2434C69224302608A68C2621F
:104120000A688262984206D0B04204D0B84202D0F7
:10413000084A904201D10969016301214161F0BD42
:10414000002C0140000400400040014000440140B8
:10415000002000400048014010B5CB06DB0E0121D5
:10416000046A99408C430462016A9A4011430162D7
:1041700010BD30B58468FF252D021B021343AC43EC
:104180000B432343836030BD826870239A430A4304
:1041900007210A4382607047F0B5026A5208520054
:1041A0000262056A436882697024A24392080C681F
:1041B00092001443022295438A68164E2A43144DF6
:1041C000A84207D0B04205D0134FB84202D0134FD7
:1041D000B84206D10827BA43CF6817430422974351
:1041E0003A46A84207D0B04205D00B4DA84202D0B3
:1041F0000A4DA84206D103252D02AB434D691D434C
:104200008B692B4343608461496841630262F0BD5E
:10421000002C0140004001400044014000480140A2
:1042200070B5026A10239A430262056A4268836984
:1042300073242402A3430C6824021C4320239D43BF
:104240008B681B012B43124DA84208D11D46CB6839
:104250008026B5431B012B434025AB4308E00D4DA1
:10426000A84205D00C4DA84202D00C4DA84208D15E
:104270000325AD02AA434D69AD0015438A6992003A
:104280002A434260846149688163036270BD000013
:10429000002C014000400140004401400048014022
:1042A00070B5026AFF2301339A430262056A4368CC
:1042B000C2697024A24392080C6892001443012240
:1042C000520295438A6812022A43124DA84208D12D
:1042D0001546CA68C614B54312022A430515AA43F7
:1042E00008E00D4DA84205D00C4DA84202D00C4D5F
:1042F000A84208D103252D03AB434D692D011D4371
:104300008B691B012B434360C4614968C16302622E
:1043100070BD0000002C01400040014000440140FD
:104320000048014030B5026A01231B039A43026230
:10433000046A4268C36973252D02AB430D682D02E0
:104340001D4301235B039C438B681B0323430C4CDD
:10435000A04208D00B4CA04205D00B4CA04202D08A
:104360000A4CA04205D10124A403A2434C69A40134
:1043700022434260C56149680164036230BD0000A8
:10438000002C014000400140004401400048014031
:1043900030B5036A046A6408640004628469F02525
:1043A000AC43120122430A24A3430B4382610362FC
:1043B00030BD30B5036A1024A34303628469036AE5
:1043C0000F252D031203AC432243A024A34309016C
:1043D00019438261016230BDF8B50D46064600689A
:1043E0001449154C1746884207D16069202812D01D
:1043F00012482946007800F055FE1149306888427D
:1044000008D1E06920280DD00E483A4629460078A8
:1044100000F048FEF8BD642329463046A560FFF74A
:1044200096F8EAE764233A4629463046A560FFF746
:104430008EF8F8BD003801402C01002058590008C2
:10444000004800405959000810B5818CC90707D0B1
:1044500001684A6801235B049A43836A1A434A60ED
:10446000818C890707D501684A6801231B049A4398
:10447000C36A1A434A60818C490707D501684A68B4
:1044800001239B049A43036B1A434A60818C0907FA
:1044900007D501684A680123DB039A43436B1A433B
:1044A0004A60818CC90607D50268916801231B0305
:1044B0009943836B19439160818C890607D5016804
:1044C0008A6801235B039A43C36B1A438A60818C19
:1044D000490612D503685A6801210905046C8A430C
:1044E00022435A60026C8A4207D102685168032352
:1044F0005B059943436C19435160818C090607D5CC
:1045000001684A680123DB04806C9A4302434A60D5
:1045100010BD0000FEB507460025803704467D60CB
:10452000FDF790FE0190206800682646000760367F
:10453000002819DA27480090012100224905204669
:10454000019B00F011FA00280ED0EFF3108001213A
:1045500081F3108821680A6880239A430A6080F3F7
:1045600010882020E06729E020680068400728D5EF
:10457000184800900121002289052046019B00F087
:10458000F3F900281DD0EFF31080012181F310888A
:1045900021680A68FF2321339A430A6080F3108858
:1045A000EFF31080012181F3108821688A68520896
:1045B00052008A6080F3108820203860357603200E
:1045C000FEBD2020E06738602566656635760020F0
:1045D000FEBD0000FFFFFF01F8B5446AE06F25460D
:1045E00080352E682168896800270906002906DAC7
:1045F000212804D152200753204600F09FF820685C
:104600008068400606D5222E04D15A200753204642
:1046100000F064F868681021084368602046FEF7DF
:10462000BDFDF8BD70B501468969406A00222029A8
:1046300038D05A210A52EFF31081012383F31088F6
:1046400003681C68FF250135AC431C6081F31088AA
:10465000EFF31081012383F3108803689C686408DA
:1046600064009C6081F31088EFF31081012383F3D1
:10467000108803689C684025AC439C6081F31088D7
:10468000202380210B50016E01290BD1EFF3108103
:10469000012383F3108803681C681025AC431C6059
:1046A00081F310884266016E012902D0FEF7DCFE1C
:1046B00070BD5821095AFEF74FFD70BD10B5406A14
:1046C00001214166016E012902D0FEF73FFF10BDB6
:1046D0005821095A4908FEF73FFD10BD10B5EFF308
:1046E0001081012282F3108802681368FF242134AC
:1046F000A343136081F31088EFF31081012282F34A
:104700001088026893685B085B00936081F31088EF
:10471000016E01290BD1EFF31081012282F3108881
:10472000026813681024A343136081F310882022C9
:1047300080210A5000210166816610BD10B5EFF39B
:104740001081012282F3108802681368C024A343F9
:10475000136081F310882021C16710BD70B5044635
:1047600080682169E2690843616900251143226874
:1047700008431168494B19400143116020684168A2
:10478000032212039143E26811434160A169206A48
:104790002268084391680B231B02994301439160EF
:1047A0003F4A20683F4990420AD1086B8007800F3A
:1047B00022D0012816D0022816D003281ED10FE0DF
:1047C000394A904212D1096B03200004014016D0EF
:1047D00001200004091A05D0091A05D081420DD123
:1047E00002210CE004210AE0082108E02F49884258
:1047F00002D02F49884201D1002100E01021012080
:10480000E369C0032B4A2C4E834222D1002906D0F3
:10481000022907D0042907D0082935D108E0FDF77F
:10482000E5FF03E0104603E0FDF7F0FF002830D07D
:10483000616840004A088018FBF70BFE01461039FA
:10484000B14221D81C49491C01400007400F0843D0
:104850001DE0002906D0022907D0042907D0082925
:1048600012D108E0FDF7C2FF03E0104603E0FDF7B8
:10487000CDFF00280DD061684A081018FBF7E9FD4C
:1048800001461039B14201D9012502E080B2216808
:10489000C8600020A066E066284670BDF369FFEF9F
:1048A0000038014000100240004400400048004031
:1048B000004C004000127A00EFFF000070B5044683
:1048C0004165403002830020254680356860222102
:1048D0002960616F002919D0204B8B62636F2049DA
:1048E000D962636F1F491963616F13464863666D30
:1048F000216832462431606FFDF704FB002805D0A3
:104900001020686020202860012070BD20690028E8
:104910000CD0EFF31080012181F3108821680A6820
:10492000FF2301331A430A6080F31088EFF31080ED
:10493000012181F31088226893680B43936080F310
:104940001088EFF3108081F3108821688A68402373
:104950001A438A6080F31088002070BD2546000845
:10496000BD460008D9450008FFB5064681B080362F
:104970000546044660350A9F2EE0781C2CD0FDF7D2
:1049800061FC0499401AB84214D8002F12D0206854
:104990000168490720D5C169C94309070CD4082714
:1049A00007622046FFF79AFE7760002028760120F4
:1049B00005B0F0BD0320FBE7C069C04300050BD480
:1049C00001202168C00208622046FFF787FE2020F0
:1049D000706000202876EDE72068C169029888435E
:1049E00005D0002103988142C7D00020E0E70121D3
:1049F000F8E7000010B5012202490348FEF708FD60
:104A000010BD0000F81300207803002010B501222B
:104A100002490348FEF7FCFC10BD00001C140020F6
:104A200000040020012140300180002101808180AC
:104A300001820846704700004030034902888A43DB
:104A4000028000207047000080BF0000F8B52F48AA
:104A50002E4A417881701030477887701030407846
:104A6000203284469070104610304078103200900A
:104A70009070104610304078103286469070104684
:104A80001030467886701030457885701030447844
:104A900084709038437883701030427882701C485C
:104AA0000029006801D11949886018491031002F88
:104AB00000D18860154967462031002F00D18860F9
:104AC0001249009F3031002F00D188600F4977468E
:104AD0004031002F00D188600C495031002E00D1A8
:104AE00088600A496031002D00D188600749703123
:104AF000002C00D1886005492039002B00D1886046
:104B000002491039002A00D18860F8BDAC010020AC
:104B10001400002070B5114C0546A06885421CD0D9
:104B20000F481E2105600F48A560FBF78EFC002D85
:104B300005D0012D05D0022D0FD1616902E0E16899
:104B400000E021690748FBF7F1FB064800F090F907
:104B5000014622780448FFF73FFC70BD5001002059
:104B6000EC000020401400207803002070B50546BA
:104B70001E211048FBF769FC0E4805211E30FBF78B
:104B800064FC0D4C0B48E16AFBF7D0FB0949052298
:104B90001E31284600F0B2F9064906481E31FBF7DF
:104BA000EBFB044800F064F9014622780348FFF764
:104BB00013FC70BD40140020500100207803002039
:104BC000F8B50D4606461E217048FBF73EFC6F48BF
:104BD0000D211E30FBF739FC6C4811213230FBF7F8
:104BE00034FC6B4C330000F013F908050EACB8C46C
:104BF000426D7D416548A169FBF798FB634904223A
:104C00001E3128466AE06148E169FBF78FFB5F4986
:104C100003221E31284600F071F95EA15B481E3068
:104C2000FBF7AAFB59485DA13230FBF77FFB002D53
:104C300004DA56485AA13230FBF79EFB53491E3125
:104C400008461430FBF798FB504854A13230FBF76C
:104C500093FB4E494D483231FBF78EFB4B4800F039
:104C600007F9014622784F48FFF7B6FBF8BD4748E1
:104C7000216AFBF75BFB4C4EB068FCF75DFB022240
:104C8000694600F03BF9414869461E30FBF774FB6A
:104C90003E4846A11E30FBF76FFB7068FCF74CFBEB
:104CA0000222694600F02AF9384869461E30FBF7AF
:104CB00063FB36483EA11E30FBF75EFB3068FCF715
:104CC0003BFB33E03148A16AFBF730FB394928460A
:104CD000FBF7C9FB08462D4905221E3100F00EF9ED
:104CE00035A19BE72948616AFBF720FB344E02227D
:104CF0006946306900F002F9244869461E30FBF726
:104D00003BFB224829A11E30FBF736FB02226946F5
:104D1000F06800F0F3F81D4869461E30FBF72CFBE5
:104D20001A4823A11E30FBF727FBB0680222694610
:104D300000F0E4F8154869461E30FBF71DFB21A181
:104D40006CE71248216BFBF7F1FA104902221E3181
:104D5000284600F0D3F81CA160E70C48616BFBF714
:104D6000E5FA0A4902221E31284600F0C7F818A1C8
:104D700054E70648A16BFBF7D9FA044902221E3119
:104D8000284600F0BBF814A148E7000040140020BA
:104D90005001002020646567000000002200000030
:104DA0002D000000780300203C020020483A00005B
:104DB0004D3A00001027000020696E636800000073
:104DC000C80000205300000020686F7572000000CA
:104DD000206D696E00000000207365630000000014
:104DE000F8B5040C8BB2264682B25E430D0C104619
:104DF000370C5843360480190021794116466E431A
:104E0000370C36048019794126466E438919F8BD5E
:104E100030B47446641E2578641CAB4200D21D4633
:104E2000635D5B00E31830BC184700008307FF2276
:104E3000DB0E9A408907090E9940002808DB830899
:104E400009489B001B181868904308431860704776
:104E50000007000F0838830804489B001B18D86916
:104E600090430843D861704700E400E000ED00E0A3
:104E700010B504460B48006800F050F900F0F4F853
:104E8000094A0021506001E04354491C635C002B37
:104E9000FAD15068FF23435444186370A370C91CAF
:104EA000117010BD340100205001002010B5094AD6
:104EB0000B685268934204D90024E443E31A9B1818
:104EC00000E0D31A834202D301200A6010BD002003
:104ED00010BD000010000020074A5268914204D91A
:104EE0000023DB43591A891800E0511A814201D38B
:104EF00001207047002070471000002070B5164652
:104F00000D46002800DA4042002405E00A21FBF7A4
:104F1000AAFA30312955641C0028F7D13020B44258
:104F200002DA2855641CFAE72146284600F068F9A1
:104F300000202855204670BD08B5FDF769FAFFF737
:104F400081F8FEF75DFD434841690122114341614B
:104F5000406910400022009011460920FDF7AAFA8E
:104F60000920FDF79BFA002211460A20FDF7A2FA5C
:104F70000A20FDF793FA002211460B20FDF79AFA5A
:104F80000B20FDF78BFAFEF7E7FCFEF787FDFEF737
:104F9000B1FDFEF7E9FDFEF723FEFEF745FE2F48C3
:104FA0002D490160082141600221816001610021D9
:104FB0008161C1610162FDF797FA002801D072B6E4
:104FC000FEE7FEF7AFFCFFF715FDFFF71FFD002121
:104FD0002348FEF769F823480122006881880068A9
:104FE000FDF729F91F4801222C30006881880068EC
:104FF000FDF721F91A484838FDF7E4FE0020FFF7D5
:1050000089FD7D200001FCF7B3FF0120FFF782FD41
:10501000FDF718F9134C603C2546B835A0602868A8
:10502000FCF78AF901460020FFF7CAFD6868FCF723
:1050300083F901460120FFF7C3FD7D25ED00FDF753
:1050400001F96060FEF714FE064928461439FFF79F
:105050002DFFF4E700100240005C004088040020AF
:1050600030030020700000200C4900200A5C002A58
:1050700004D0401CC0B22428F8D30DE001220A5409
:10508000242809D2064A1178491E11702821484364
:10509000024924314018704700207047DC08002086
:1050A0000001002070B50300FFF7B2FE07150507E9
:1050B0000A0D10131500174C0DE0164C241D0AE0C4
:1050C000144C203407E0134C243404E0114C103409
:1050D00001E0104C143400234B6223680E4E002B69
:1050E00001D0012409E02160032802D0042800D067
:1050F000327070BD641C2B46E4B25D6A002DF9D19C
:105100005962032802D0042800D032550148001FFC
:10511000847070BD04010020A00E00200A4A002106
:1051200028234B439B18834208D1074A0020243A86
:10513000505406490878401C08707047491CC9B291
:105140002429EDD370470000000900200001002051
:10515000F0B595B00746002008A9154D087168788C
:10516000002821D0282213490AA8FAF7EDFF114E92
:105170000024252060438019014625312522FBF7B4
:1051800007F9641CE4B2232CF3D3252269460A48AC
:10519000FBF7FEF868780AA9401E68702522384699
:1051A000FBF7F6F815B0F0BD25226946F7E70000D9
:1051B00000010020C40E0020D313002070B50E4C57
:1051C00006466078252148430C4D24214019FBF701
:1051D0003CF9607825214843401924223146FBF7E9
:1051E000D7F86078252141434919012220310A71FD
:1051F000401C607070BD000000010020C40E002043
:1052000010B50022491E05E0835C445C845443547D
:10521000491E521C8A42F7DB10BD0000F8B5044657
:10522000C0690026574D0F46002841D001287DD087
:105230000846FCF7E3F80090216900F025FBFCF735
:105240007BF8002800DA4042FBF73DFE00224E4B7F
:10525000FBF79AFB00224D4BFBF740FEFBF7B8FD36
:10526000484F8C377969490888426FD938463438B5
:1052700081880068FCF7DAFF002869D0009821696E
:1052800000F002FB0121C905884261DB3946503933
:105290006420FFF70BFE00285CD03D4839462C31D6
:1052A00038614860B4210120E661FFF789FC51E0D4
:1052B0003848407800283BD137484078002837D11B
:1052C0002069FCF739F8B84233D02E49FF2040312D
:1052D000F530FFF7EBFD00282AD03846FCF78EF8B2
:1052E000216900F0D1FAFF21C905C84220688188F0
:1052F000006807D30022FCF79EFF606800228188C7
:10530000006806E00022FCF796FF606801228188B1
:105310000068FCF790FF66612068002281880068C1
:10532000FCF789FF0120E061686800E004E0A0610B
:10533000F8BD68682864F8BD21461831C820FFF719
:10534000B5FD0028F7D00220E061F8BD16E0FFE7C8
:105350006868E8630B490120A431FFF7A7FD002826
:10536000F3D0387DC2070748D20F503081880068DB
:10537000FCF761FF7869401C7861E6E700983861C6
:10538000E661E2E710000020008076400000B940AE
:1053900000003443AC010020BC01002070B504467D
:1053A0000D460846FBF7C8FF216802000868898897
:1053B00010D0FF22D205D5421DD30022FCF73BFFBF
:1053C0006068002281880068FCF735FF0120C00773
:1053D000454002E00122FCF72EFF0A492846FBF770
:1053E000FBFE094900F0C0F9FBF7CCFF0146A068BD
:1053F00000F02EF970BD0022FCF71DFF6068818867
:105400000068E7E70000B4430000C84570B50546F2
:1054100014460846FBF7B6FE054A064BFBF75EFD51
:10542000FBF7C8F801462246284600F01FF870BD79
:10543000666666666666394010B504460846FBF740
:10544000A1FE074A074BFBF79FFA0022064BFBF72A
:1054500045FDFBF7AFF801462046FFF79FFF10BD63
:10546000814EE62E0BEB694000807640FEB5764B10
:1054700004465F78734D0026C069002F02D09B78E8
:10548000002B48D0032860D0704B5F78002F02D0EB
:105490009B78002B01D0002A01D000287DD0022863
:1054A0007CD1616A206A00F035F928D0216AA06AAF
:1054B00000F030F923D0616A0191206A009000F079
:1054C000E3F9FBF739FF071E00DA7842FBF796FF96
:1054D000A96AFBF781FEFBF755FF2863380000D56A
:1054E0007842FBF78BFFE96AFBF776FEFBF74AFF92
:1054F00068630198A062009860626868A863216A86
:10550000A06A00F007F974D0216AA06A00F084F95B
:105510005AD2686B59E0022801D1002A4FD00121EC
:10552000A06AC9074840FBF707FF002800DA40429D
:10553000FBF764FFE96AFBF74FFEFBF723FF6863A5
:1055400026626868A8630320E061A06A4000000E3C
:1055500033D0A96B686BFFF7BFFC002802D0002195
:10556000A66239E0A96B6868814204D90022D2435F
:10557000511A081800E0401AFF21A66AC905CE4258
:105580000DD23221FAF765FF32214843FBF736FF8F
:10559000E96A00F0E9F831463EE011E00FE032211F
:1055A000FAF757FF32214843FBF728FFE96A00F07A
:1055B000DBF831463FE001460EE0E6616662FEBD83
:1055C00002202162E0616CE7286BA96BFFF784FC85
:1055D000002805D0216AA1622046FFF72DFFFEBDFD
:1055E000A96B6868814205D90022D243511A0E186E
:1055F00001E023E0461A216AA06A00F00DF90ED2FC
:1056000032213046FAF725FF32214843FBF7F6FEF8
:10561000E96A00F0A9F8A16A00F02AF9CBE7322183
:105620003046FAF716FF32214843FBF7E7FEA96A36
:1056300000F09AF8A16A00F027F8BCE70148603052
:10564000C661FEBD100000209C0100208C010020DE
:1056500070B500240A460546002906D0A96A094803
:10566000491C5143FAF7F5FE441E2046FBF733FC74
:105670000022D243FBF756FDFBF7E0FB6863EC62C8
:10568000204670BD006CDC0270B501250400ED07FA
:105690004C4020D4441A01D2001B0919C60D4B00FE
:1056A000F2B2FF2A29D01B0E2CD000020C02D31A12
:1056B0002C43DC402843051910D2280A02D3401C91
:1056C0006D0611D0761EF6058019FF2A00DA70BD2E
:1056D000C00DC00570BD694000F0DCF80120054335
:1056E000C541521C761CE8E764089C40C901614032
:1056F0008900E7D10124A043E4E71B0E440200D057
:10570000034870BD002AFCD1C00FC00770BD00BFA8
:105710000000C07F01230200DB050A430DD4DA42FA
:1057200003D49A4207D488427047D84214D4D9424D
:1057300012D48842704780427047DA4203D59A42B9
:10574000F9D5814270475B004200DA4204D24A0038
:10575000DA4201D28142704710B5024AFBF75AFE85
:1057600010BD00BF0900120470B5420064414B0037
:105770005C41120E39D01B0E38D0FF2A3CD0FF2BD3
:105780003AD040024902400A490A060045184E43F1
:10579000000A090AD2184843ED017F3A0104731A3E
:1057A0004019190C4318990F04D001215B084907CF
:1057B0005B1A521CD80904D3401CF50301D19D0685
:1057C00007D0FF2A08D2D50506D0E40720434019A8
:1057D00070BD0125A843F4E7002A01DCE00770BD95
:1057E0002402FF202043C00570BD1B0EFF2A03D0FA
:1057F000FF2B01D0E00770BDFF2645003606B542FD
:1058000006D84D00B54203D8D218FF2A00D0E7E7EA
:10581000004870BD0000C07F01230A00DB05024381
:105820000DD4DA4203D49A4207D481427047D94258
:1058300014D4D84212D48142704789427047DA4268
:1058400003D59A42F9D5884270475B004A00DA4294
:1058500004D24200DA4201D28842704748404140B7
:1058600010B5024A4840FBF7D5FD10BD09001604EB
:1058700070B50125ED07684004004C4002D5694031
:1058800000F008F8FFF706FF70B501250400ED07EA
:105890004C4022D4441A02D26C40001B0919C60D98
:1058A0004B00F2B2FF2A4BD01B0E50D000020C026C
:1058B000D31A2C43DC40A843051B05D5AD0019D3F2
:1058C0006D08761E521E37D0F605280A01D28019BF
:1058D00070BD70416D0603D070BD6940FFF7DAFE00
:1058E0009C4009026140490001D0401E70BD012466
:1058F000A04370BD6D081DD001202B0C01D12D04DB
:1059000010302B0E01D12D0208302B0F01D12D01AB
:10591000001DAB0F01D1AD00801CEB0F01D16D005C
:10592000401C6D00361A121A680AF5054019012A42
:1059300002DB70BD002070BDC036300AC00770BDEC
:105940001B0E440201D1FF2B00D1024870BD002A7A
:10595000F0D070BD0000C07F0103020304050607FC
:1059600008090A0B0C0D0E0F1010010203040506A6
:105970000708090A0B0C0D0E0F10000000000000B4
:1059800000000102030406070809000000000102EC
:10599000030480807F7E7D7C7B7A7978777676754C
:1059A0007473727171706F6E6E6D6C6C6B6A6A6914
:1059B0006868676666656464636362616160605FAE
:1059C0005F5E5E5D5D5C5C5B5B5A5A595958585727
:1059D000575656555555545453535252525151508F
:1059E00050504F4F4F4E4E4D4D4D4C4C4C4B4B4BE2
:1059F0004A4A4A4949494848484747474746464628
:105A00004545454444444443434343424242424162
:105A100041418182838485868788898B8C8D8E8F96
:105A2000919293959697999A9C9D9FA0A2A3A5A7C2
:105A3000A8AAACAEB0B2B3B5B7B9BCBEC0C2C5C7F8
:105A4000C9CCCED1D4D7D9DCDFE2E6E9ECF0F3F76C
:105A5000FAFE0000544D5F6D61696E2E74322E6245
:105A6000636F3D00544D5F6D61696E2E74302E740E
:105A700078743D00544D5F6175746F2E74302E74D0
:105A800078743D00544D5F6D61696E2E74312E74D3
:105A900078743D00544D5F6175746F2E74312E74AF
:105AA00078743D00544D5F6D61696E2E74322E74B2
:105AB00078743D00544D5F6175746F2E74322E748E
:105AC00078743D00544D5F6D61696E2E74332E7491
:105AD00078743D00544D5F6D61696E2E74342E7480
