:020000040800F2
:10000000081A002081010008AD3800087934000882
:1000100000000000000000000000000000000000E0
:10002000000000000000000000000000B1380008DF
:100030000000000000000000AF380008E5390008AB
:100040009301000893010008930100089301000840
:100050009301000893010008930100089301000830
:100060009301000845180008551800086D1800088D
:100070009301000893010008930100089301000810
:100080009301000893010008930100089301000800
:1000900093010008930100089301000893010008F0
:1000A00093010008930100089301000893010008E0
:1000B00093010008930100089301000893010008D0
:1000C00000F002F800F030F80CA030C8083824180E
:1000D0002D18A246671EAB4654465D46AC4201D180
:1000E00000F022F87E460F3E0FCCB6460126334282
:1000F00000D0FB1AA246AB4633431847C05000005D
:10010000E05000000023002400250026103A01D30F
:1001100078C1FBD8520700D330C100D50B607047BF
:100120001FB51FBD10B510BD01F0CAF91146FFF78C
:10013000F7FF04F0FBFA01F0E2F903B4FFF7F2FF76
:1001400003BC01F013FA000070B505460C461646D4
:1001500002E00FCC0FC5103E102EFAD2082E02D3AB
:1001600003CC03C5083E042E07D301CC01C5361FBE
:1001700003E021782970641C6D1C761EF9D270BDD5
:100180000748804707480047FEE7FEE7FEE7FEE72F
:10019000FEE7FEE704480549054A064B70470000A4
:1001A000693A0008C100000808140020081A00205D
:1001B000081600200816002070B500252C46AD1A40
:1001C0009C4112DA00252C462D1A8C4102DA00F0EF
:1001D0002BF870BD002440428C41214600F024F8E9
:1001E000002440428C41214619E000252C462D1A5E
:1001F0008C410ADA002452429C41234600F014F854
:10020000002440428C41214670BD002452429C4152
:100210004042234600248C41214600F005F800248A
:1002200052429C41234670BDFEB5054610460C4621
:10023000184373D0AE468C460020AD1A01469C414F
:1002400067D36646002701243D46B61A9D4102D376
:1002500013463A462124654676462F04360C3E4323
:100260002D0CB61A9D4104D3150C1B042B4312040C
:100270001034654676462F06360A3E432D0AB61AD6
:100280009D4104D3150E1B022B4312020834654610
:1002900076462F0736093E432D09B61A9D4104D3F1
:1002A000150F1B012B431201241D65467646AF072F
:1002B000B6083E43AD08B61A9D4104D3950F9B0086
:1002C0002B439200A41C65467646EF0776083E4312
:1002D0006D08B61A9D411AD392185B41641C16E052
:1002E0000018764665464941B71A9D410191009034
:1002F00009D36046B11A98418E4684460098019908
:100300000025401C6941DD0752082A435B08641E32
:10031000E6D57246634603B0F0BDFFE70020014614
:10032000C046C0462A462346F5E70000034670B59E
:1003300002460B439B070FD10E4CE60100E008C2BA
:1003400008C91D1B9D433542F9D0D9B21170521C0A
:1003500000290DD01B0AF8E70B78491C1370521CBA
:10036000002B05D00B78491C1370521C002BF3D1C5
:1003700070BD000001010101421E5378521C002B88
:10038000FBD10B78491C1370521C002BF9D170471C
:10039000F8B5042A2CD3830712D00B78491C0370BC
:1003A000401C521E83070BD00B78491C0370401C65
:1003B000521E830704D00B78491C0370401C521E48
:1003C0008B079B0F05D0C91ADF002023DE1B08C94D
:1003D0000AE0FFF7B9FEF8BD1D4608C9FD401C46FE
:1003E000B4402C4310C0121F042AF5D2F308C91AD6
:1003F000521EF0D40B78491C0370401C521EEAD4E4
:100400000B78491C0370401C012AE4D40978017060
:10041000F8BD01E004C0091F0429FBD28B0701D5F8
:100420000280801CC90700D00270704700290BD0E1
:10043000C30702D00270401C491E022904D383075F
:1004400002D50280801C891EE3E70022EEE700222D
:10045000DFE7002203098B422CD3030A8B4211D31E
:1004600000239C464EE003460B433CD40022430845
:100470008B4231D303098B421CD3030A8B4201D335
:1004800094463FE0C3098B4201D3CB01C01A5241CD
:1004900083098B4201D38B01C01A524143098B421D
:1004A00001D34B01C01A524103098B4201D30B0106
:1004B000C01A5241C3088B4201D3CB00C01A52412B
:1004C00083088B4201D38B00C01A524143088B42F0
:1004D00001D34B00C01A5241411A00D20146524189
:1004E000104670475DE0CA0F00D04942031000D3A8
:1004F0004042534000229C4603098B422DD3030AFD
:100500008B4212D3FC22890112BA030A8B420CD30C
:10051000890192118B4208D3890192118B4204D335
:1005200089013AD0921100E08909C3098B4201D3B5
:10053000CB01C01A524183098B4201D38B01C01AEF
:10054000524143098B4201D34B01C01A5241030966
:100550008B4201D30B01C01A5241C3088B4201D315
:10056000CB00C01A524183088B4201D38B00C01AC2
:100570005241D9D243088B4201D34B00C01A524199
:10058000411A00D20146634652415B10104601D326
:100590004042002B00D54942704763465B1000D3B0
:1005A000404201B50020C046C04602BD70477047BA
:1005B000704700000246C80FC00781434B0030B5AA
:1005C0004B405B009B0D20D01923DB06C91801238B
:1005D0001B05994220DB0324A40704251346AB40E6
:1005E0000BD3002B04D1EB0613409B00E34204D451
:1005F00001246407002312195941FF231B05994266
:100600000BD2C9000143500F09E0CB0204D50143CE
:100610000803024305D0054830BDFF21C905084342
:1006200030BD084607210905884330BD0000C07F62
:10063000F0B50C46871A9C410D46861A9D4103D29F
:10064000C01BA141D21963410D0D1F0DC94EEC1BFA
:10065000AE435CD07F057F0D0026002F51D02D05C5
:10066000AC46A943DD020123ED0A1B051D432023EF
:100670001B1B24D41746E740381871412F46E7402A
:10068000CC199D402818314661410C0D27D1614499
:100690009A4013D50023401C594152000ED1400806
:1006A000400001224B005205D34207D305204007EA
:1006B000C14201D5B04900E0B0493046F0BD6B0001
:1006C000002A00D001229A181F23203C1B1B01D5B1
:1006D000002302E0E540281871410C0DD7D0012419
:1006E00024050919C407CD0740084908E40F284329
:1006F0006144002CD5D00024401C61419A40D0D1E7
:10070000CDE76A05520DD9D1C90FC907D5E79C4D70
:100710004E00002801D0012400E0002434195F00BD
:10072000002A01D0012600E00026BE19954FAC42F8
:100730000CD8AE420AD8B44206D001256D05EC4271
:10074000BCD010461946F0BD9942FCD00020394675
:10075000F0BDF0B51FB40C460F46811A9F412546E7
:10076000861A9D4106D20125ED076F40401ABC4113
:1007700052187B41210D1E0D8D1BAC467D4D8D43C6
:100780007ED075056D0D7CD00D05AE46AC431B03C8
:100790001B0B794D52429D41202366469B1B14D36F
:1007A0001746F740381800260090744160462F46DF
:1007B0000741E41900989D402818664116D47146F7
:1007C00071189A4025D5012320E093182A466A41E2
:1007D0005200002B00D0521C1E23203E9B1B002BDE
:1007E00061DD3541EE1728186641E8D500187641DD
:1007F0005B1C9A4000D3401C4B05F3181524E340C2
:1008000010D3002B52D071467118D30FC01802D3E9
:10081000491C05B0F0BD0123DB079A42F9D140081D
:100820004000F6E701225205B21801D1002853D04A
:100830000123CC0ADB029943891E002A08D1020C4D
:1008400003D0020C0004103902E0024600202039D7
:100850000023550B05D112020823550B01D152017B
:100860000D23550C01D112011B1DD50C01D1920095
:100870009B1C150D01D152005B1C2025EE1A01E0D6
:100880002CE022E00546F54015439840CA1AE107DE
:1008900069181305C918002ABBDA03204007081895
:1008A000C10FC9070FE071466118B2E7F1074008B0
:1008B0000843711071444A000CD001235B059A4231
:1008C000A7D2C90FC9070020A3E74905490D26D1C2
:1008D000002001E00028F4D100219AE7284D6600AD
:1008E000002801D0012100E0002171185F00002ADA
:1008F00001D0012600E00026BE19224FA94210D8DF
:10090000AE420ED8B14208D001256D05E94206D0AD
:100910001946A802414010467BE79C4201D021467F
:1009200077E70020394674E710B50C465C4005D5E2
:100930000124E4076340FFF70CFF10BDFFF778FECA
:1009400010BD30B40C465C4004D50124E40763407C
:1009500030BC6DE630BCFCE670B50124E4076140B4
:100960000D465D4002D4FFF763FE70BD6340FFF7A4
:10097000F0FE70BDFF0700000000F0FF0000F07FF8
:100980000000E0FF0000F87FF0B5F94D0C091E09EA
:100990002C402E402F468BB0A7437DD0B543FCD0D2
:1009A000002E7AD0002CFCD00D465D40ED0F254383
:1009B000AC1BFF25AD0464190894C502440DC9029F
:1009C0002143500DDC0204430120C00701430443CE
:1009D000D2020191200C110C00958C460104234693
:1009E0008B430A9161460904E24D8A430991010A49
:1009F0007D4449198039097805464D4301266D1813
:100A0000F605751B6943C90C640B891C4C436418BB
:100A1000B5012C1B250C2E04B4434C434D43210C33
:100A2000691889090591009DE90701D00121C907CD
:100A300004912C4601996708CD072F434C08059D6A
:100A4000E10B4D432D0C29466646754302950D4634
:100A500045432E46029D7D1BB44100950D465D43E6
:100A600001942C0C2F040D465543AE462D0C3D43EE
:100A7000029503947546049C2D04641B049406D2CD
:100A8000029C039D641C002675410395029401ACF1
:100A900070CC009F7D1B01E03EE162E1B44109049E
:100AA0000095079101940599A4086143090C0C462F
:100AB0004443650BE7040C4666467443A646640B44
:100AC0003C43039502947446049DE4042C1B049457
:100AD00006D2029C039D641C002675410395029476
:100AE00001AC70CC009F7D1BB44101940C465C436B
:100AF0000095650FE7000C465443A646640F3C433F
:100B0000039502947446049DE4002C1B049406D2C1
:100B1000029C039D641C002675410395029401AC60
:100B200070CC009F7D1BB441AE09AF06049DC90087
:100B3000AD092F43049DA406AD060495079D3443DB
:100B400069180791059DE10B4D432D0C294666461A
:100B5000754302950D4645432E46029D7D1BB441CB
:100B600000950D465D4301942C0C2F040D46554312
:100B7000AE462D0C3D43029503947546049C2D040E
:100B8000641B049406D2029C039D641C00267541DC
:100B90000395029401AC70CC009F7D1BB44101947D
:100BA0008C050694079C890A611800950791019CA1
:100BB0000599A4086143090C0D464543680BEF04F1
:100BC0000D46644665436C0B3C43049FED047D1B5E
:100BD000AC4602D20025641C6841009E019D371B73
:100BE00085410846584301950C46460FC5005443BD
:100BF000600F28436546E4002C1B02D20025401CF0
:100C00006E41019D3F1AB5412846BD098006284323
:100C10008446A009BF064E020699A406761807432B
:100C2000079D002068410A99079019430020099BFD
:100C300000906046FF1913434041E20F64003A43BD
:100C4000A4460446D71A8C41A04203D90120009043
:100C500020463A46C70F941840416246D20F2243BD
:100C6000644664000494009CBE466400D71AA446FF
:100C7000044602978C417746002F01D1A04204D947
:100C80006046401C8446029A2046C40FA64694182B
:100C90004041049A0546D20F224364466400D31AA9
:100CA0008D417146002901D1A84202D928461A4631
:100CB000641C10430122002800D01643610200206A
:100CC000079B891904465C410223002C02DB49186A
:100CD00013466441089DCE0A2D145D194B05670526
:100CE000E10A2C050D1908993E43C9076940002BFC
:100CF00008D0934006D30022761C5141002B01D12D
:100D0000760876001C4A002D43DB154241D0AA43E9
:100D10003FD030460BB0F0BD06180D464D41174C84
:100D20007642AC411AD395181C465C41134A6D4279
:100D3000A24113D3012252054C00D4420AD15C00D7
:100D4000D4420BD04B4002D592021143E2E7490056
:100D50004908DFE75940C90FC90718E000200849D2
:100D6000D8E7054801420DD10342F7D0F2E7000071
:100D70000000FF07A64600000000F07F0000E0FF33
:100D80000000F87F114859400143C0124140002043
:100D9000C0E70123089A9B069A4205DC032252070A
:100DA0008918C90FC907B5E7052252078918074AEC
:100DB0001143D2125140ADE770B515461C460246AC
:100DC0000B4628462146FFF7DFFD70BDFFFFFF7F82
:100DD00030B50346CA02400D1043164D164C0A1595
:100DE00002D02043002A06DBAA1A002A12DDD040D6
:100DF000FF2A0BDC30BD5205520D01D140004008E6
:100E0000AA1A07D4D0404042FF2A01DD002030BD9D
:100E10000028FCDD4A00002B01D0012000E000206A
:100E2000101801225205D042F0D8C817C0436040C4
:100E300030BD00001E040000000000800346CA020E
:100E4000400D10B510430A1504D00124E4072043D7
:100E5000002A05DB0A4CA21A04D4D040FF2A00DD88
:100E6000002010BD4A00002B01D0012000E000202E
:100E7000101801225205D042F2D8C817C04310BD45
:100E80001E0400001F22030C02D10F22000402D016
:100E9000030E03D004E00020014670470002083A28
:100EA000030F01D10001121F830F01D18000921E98
:100EB000002801DB4000521E120551184205C012E5
:100EC000411810467047C10FC90700D040420122A7
:100ED00092071143D6E701218907D3E7F0B58B4C80
:100EE0000F09254689B0BD437BD01D092646AE4378
:100EF000FAD00E465E402740F60F3E43254071D0A3
:100F000024012142FBD0FF24AD19A4042D1B03951D
:100F100001252D05DB02DB0AC9022B43C90A29433F
:100F20001E010901040F130F050121431701880B4E
:100F3000820391432D098C46A90B1E438A039543D6
:100F4000B30B9A0396433F09BA0B9403A743029647
:100F50002E467E430497B6464E19D7190C46019685
:100F6000544305977E43371B7646BF1B3601B64672
:100F7000BE0B361900967646BC043719009C01D387
:100F8000641C00946400002F01D001263443029EAB
:100F9000049F754366467E430496760034196E00BE
:100FA00034190094029C019E1C196643751BAE46C1
:100FB000069465464519059C05956C43594375464D
:100FC0000891691A0191049E01465143A41B0491A2
:100FD000611A009C0791E10605D0610901221143C5
:100FE00002E072E06EE06109089D00272C0A2D06E0
:100FF0006918049D7C412A0A2D066918019D6241E9
:10100000AC0DAD026D185441079A910D920255191D
:101010006141029A644658435443069B059A5A43D9
:10102000121A131B9A0E9B015B187A41010B0005E3
:10103000C3185141220A200644195A419A4200D24B
:10104000491C01204002814203D315230226F643A6
:1010500002E014230326F6432020C51AA9401746B0
:10106000AF40DA400A4320460399D8400914731868
:1010700019055118039A3843D2075140AC4009D0A2
:101080000122944006D30022401C5141002C01D182
:10109000400840001E4A934212D301220398920650
:1010A000904207DB0520400709181A480143C01287
:1010B000414004E0032040070818C10FC907002081
:1010C00009B0F0BD0020F107FAE705180C464C41C5
:1010D00011486D42A04115D394181A465A410E4842
:1010E000644290410ED301204A004005824209D358
:1010F0005A00824206D35940C90F084AC907002046
:101100001143DDE700200649DAE700000000FF0791
:10111000FE070000FFFFFF7F0000E0FF0000F07F00
:101120000000F87F70B505464800440D124B0020C2
:10113000002C0AD0634008D09A4206DA6642B242D6
:1011400003DD12054019514170BD002C08D0002B61
:1011500009D0C90FC907002AF6DB084A114370BD40
:10116000C90FC90770BD28460A03104302D00020EA
:10117000034970BD284670BDFF0700000000F07FE6
:101180000000F87F0121C9050123411842001B0618
:10119000D3185B0E0AD0C1100722D2068918400767
:1011A0005242D14201D5520089187047090208D530
:1011B0000146002A03D0C10FC9070020704710461E
:1011C0007047420202D000200249704707210905FA
:1011D0000143F4E70000F87FF0B5FF252D04C609B0
:1011E000C209FF2704462E400137CB093E43484041
:1011F0002A402B400746002A6BD0002B69D0AA4218
:1012000067D0AB4265D0002800DA32460125ED05F3
:1012100029432C4309022002090AD21A4B0C7F24CD
:10122000E31A434C000A7C44E35C7D242404121935
:1012300014145B00A218884201D3521C00E0400045
:1012400049420C465C4324115C43DB016415E318FE
:10125000040A5C43C502200D0C4644436419250A68
:101260005D432303EC0C0D46654300030019EB18A6
:101270004C42A34201D35B18401CD4052018002B1C
:1012800007D05B00C91804D3401C002901D14008D5
:1012900040003F2189048A4209D3002A08DC110654
:1012A000090F04D0032149074018C00FC007F0BD43
:1012B00001224100120689187F2252069142F6D27D
:1012C00005214907C84201D59010F0BDFF20C00597
:1012D000F0BD002F00DA32461648AA4207D2AB42D0
:1012E00005D21902090E17D0F80FC007F0BDFF256F
:1012F00063002D06AB42F9D84900A942F6D8AB42AB
:1013000001D1A942F2D0A94201D1002101E061003E
:101310004908D0050843F0BD1102090EFBD0FF209B
:101320000243D005F0BD0A460146104654E70000CE
:10133000F03E00000000C07F10B501469E24000270
:10134000CA15A307002A02D01843002A04DBA21AF8
:10135000002A0CDDD04010BD1206120E01D1400053
:101360004008A21A03D4D04040420028F3DDFF22F7
:1013700048001206904201D9002010BDC817C04392
:10138000584010BD0102C21504D00123DB071943E8
:10139000002A0ADB9E239A1A02D40846D0407047DE
:1013A000FF2241001206914201D900207047C01768
:1013B000C04370471F22030C02D10F2200041CD02F
:1013C000030E01D10002083A030F01D10001121FE0
:1013D000830F01D18000921E002801DB4000521EC5
:1013E000D2055118021251181922904004D3491CF9
:1013F000002801D14908490008467047C10FC907B4
:1014000000D04042012292071143D3E7012189070E
:10141000D0E7000010B5FF231B0644009C421DD8F6
:101420004C009C421AD80346124A0B4307D4401A78
:1014300002D3EFF3008010BDEFF3008010BD081A57
:1014400006D2EFF3008001219043C907084302E070
:10145000EFF30080904380F3008810BD0D231B0440
:101460001A4204D01146002000F006F810BD00F02A
:101470001BF810BD00000090C80212D54803400FB1
:10148000002804D0C803C043012188407047EFF30F
:1014900000800001000903210907084380F3008848
:1014A000704700207047000010B5024800F02FF888
:1014B00010BD00000000C07F00487047A813002046
:1014C0007546FFF7F9FFAE46050069465346C0086A
:1014D000C000854618B020B5FEF75CFE60BC002752
:1014E0004908B6460026C0C5C0C5C0C5C0C5C0C5F0
:1014F000C0C5C0C5C0C5403D49008D46704710B548
:101500000446C046C0462046FEF717FE10BD10B583
:101510000C461107090F092904D00A290AD0082905
:101520000CD104E011460820FFF7A6FF06E05106A3
:1015300006D501E0510601D50120C007214610BDA6
:10154000D10607D501010909CC084907000E00069C
:10155000044309E0410F20024907000A0143200E1D
:1015600000061D22D14101430846E7E70149182042
:10157000ABBEFEE726000200704770B58C180578F8
:10158000401C6B075B0F01D10378401C2A1106D168
:101590000278401C03E00678401C0E70491C5B1E5C
:1015A000F9D12B0705D40023521E0DD40B70491C12
:1015B000FAE70378401CCB1A921C03E01D780D70EB
:1015C000491C5B1C521EF9D5A142D8D3002070BD26
:1015D00070B50C4605460968006803F01FFC0ED084
:1015E000084E3068FFF7A8FE0146002002F040FFD9
:1015F0007068FFF7A1FE0146012002F039FF206864
:10160000286070BDA400002010B57D20C0001749DF
:1016100003F046F8002827D001208007416A134CC8
:10162000403C6069884204D9114AD268101A4018B7
:1016300000E0081A6161FFF7E9FE0E49FFF7CCFDF3
:101640000D4903F015FCFFF79DFD0C4A0C4BFFF70D
:1016500045FCFFF7BDFBFFF736FC0A4A0A4BFFF7D4
:1016600093F9FFF7B5FBA06110BD0000500000200A
:10167000100200200000A04100008442182D4454B4
:10168000FB210940666666666666394070B5154995
:101690007D228B68D20098420CD201240C70002469
:1016A000651E2146EB1AA141181861412346FEF739
:1016B00083FD08E00978002901D00B4803E0C01A37
:1016C0001146FEF7C6FE3C21FEF7C3FE054C9434DE
:1016D000A1603C21FEF7BDFEE1603C21FEF7B9FEB2
:1016E000216170BD10000020FF297515FFB504466B
:1016F00083B00020504E009070780D9F1D4600284A
:101700003ED03146FF200831F53002F0C9FF0028F5
:1017100036D00C99002008604848002F0068B0605F
:101720001AD02846FFF76AFE01902668314603F07A
:101730009FFBFFF727FD0022414BFFF7F5F8FFF76E
:1017400047FB0A21FEF78FFE0A20401AFFF756FEDC
:101750000199FFF741FD09E026683046FFF7ECFDEF
:101760002946FEF780FE681AFFF748FE314603F06F
:101770000FFB2060049903F0D3FB01D8049820608C
:101780002D4E10367078002853D03146FF20083196
:10179000F53002F085FF00284BD00C99002008603E
:1017A0002648002F0068B0601DD02846FFF726FEAF
:1017B000216806460D4603F05BFBFFF7E3FC0022C1
:1017C0001F4BFFF7B1F8FFF703FB0A21FEF74BFEB3
:1017D000002900D10A210846FFF710FE3146FFF725
:1017E000FBFC294618E001202668C00586423046E9
:1017F00009DBFFF7A1FD2946FEF735FE002900D0E1
:101800000D46284605E0FFF797FD2946FEF72BFE1B
:10181000681AFFF7F3FD314603F0AEFB2060009934
:10182000059803F0B5FA216803F07AFB01D8059812
:10183000206007B0F0BD00004C0100201400002023
:101840000000E03F10B5024800F001FA10BD0000B2
:10185000A406002010B5034800F0F9F9024800F092
:10186000F6F910BDB40700207007002010B503483A
:1018700000F0EDF9024800F0EAF910BD2C07002055
:10188000E806002010B504460068054940181421F8
:10189000FEF7DFFD800020640248E06310BD000019
:1018A000F8FFFDBF0000024030B5056C0124AC40DC
:1018B000C56B6C60046863604368102B036803D0D9
:1018C00099600068C26030BD9A600068C16030BD38
:1018D00072B6FEE7F8B50025044620340095227D57
:1018E000012A3BD00122227503689E68760776D4D0
:1018F0003F4F4E68BE4254D09E6A0F78BA4016439E
:101900009E620123C26A1B079A421FD0012A1DD082
:10191000022A1BD0032A19D0042A17D0052A15D071
:10192000062A13D0072A11D002688B6856697607F9
:10193000760FB3420AD05369DB08DB0053610068BD
:1019400042690B7A5B075B0F1A43426108681028F3
:1019500006D0112804D0122802D045E00220F8BD9C
:10196000244A9368102809D011280AD001200006C3
:10197000034393600868102806D035E00120C005B5
:10198000F6E701208005F3E71C481B490068FEF7D5
:1019900060FD0A21484300E0401E00900028FBD172
:1019A00022E0986A0E78B240904398620868102846
:1019B00003D0112801D0122816D10E498A681028A8
:1019C00007D0112808D00120000682438A600BE06E
:1019D00005E00120C005F8E701208005F5E7816BEF
:1019E0002022114381630125002020752846F8BD7F
:1019F000011000000027014040420F007801002044
:101A0000F8B500260446002805D0A06B25462035F1
:101A1000002802D007E00120F8BD0020E06328750F
:101A2000204600F0A9F8A06B1022C006002870DB49
:101A30002068816849076CD4A16B13019943022384
:101A40001943A16381688907890F012905D10168BC
:101A5000C9070FD1C16809040CD4C1681823994380
:101A6000A3681943C1602068016963688900890817
:101A7000194301612068C1683D4B1940C160207E57
:101A8000617E8003C9030843A17E4B031843A36A08
:101A9000012B02D001231B0300E000231843E3685D
:101AA00018432369022B09D0002318432B79E57EC4
:101AB0005B0018430123012D02D00AE00423F4E760
:101AC000002927D0A16B20252943A163E16B19438D
:101AD000E163E1690D46FF3DC23D02D0256A29431D
:101AE00008432168CD680543CD600125E16A2D07D3
:101AF000A94213D0012911D002290FD003290DD0FA
:101B000004290BD0052909D0062907D0072905D0BB
:101B100010E028E0012109040843DAE721684D6953
:101B2000ED08ED004D6121684D69A78D7F077F0F9E
:101B30003D434D612168C9680E4D2940814207D15E
:101B40000020E063A06B80088000401CA06308E0D8
:101B5000A06B022188431043A063E06B1843E0634D
:101B600001263046F8BDA06B1043A063F8E70000E3
:101B70001902FEFFE7FF3F8370B586B006461421C9
:101B80006846FEF764FC1A49306888422ED119492C
:101B90008A69401502438A618A69024005924A694E
:101BA000800202434A6149690025014005910F20E6
:101BB000009003200190694602950F4800F07AF9E1
:101BC0000E480F4C21C48020256060604000A0605A
:101BD000256180006561E0600948083C00F086F8F6
:101BE000002801D0FFF774FE3463666206B070BD52
:101BF0000024014000100240000800480800024094
:101C0000A406002070B504001FD0206801684908B0
:101C10004900016020680025056020684560206853
:101C200085602068C5602046FFF72CFE216C0120EE
:101C30008840E16B4860A562E56225636563A56342
:101C4000203465702570002070BD012070BDF0B497
:101C5000C16B0D6801680C680422066C1346B34022
:101C60002B420DD063070BD50B689B0602D40B6883
:101C700093430B60016C8A40C16B4A60C16A19E0F2
:101C80000227B74002462F4001232032002F15D0F3
:101C9000A70713D50C68A40604D40C680A25AC4326
:101CA0000C605370036C02219940C36B5960002192
:101CB0001170816A002916D0F0BC08470827B74088
:101CC0002F4210D024070ED50C680E25AC430C60B3
:101CD000046C1946A140C46B61608363537000219A
:101CE0001170016BE6E7F0BC7047000070B50400AE
:101CF00021D002212046203005464170226811681B
:101D00000E48A3680140606826691843E3683343BE
:101D1000184363691843A3691843E36918430843E8
:101D200010602046FFF7AEFD0021A163012068701E
:101D30002970084670BD012070BD00000FC0FFFF74
:101D4000F8B504468C46203001780025012909D0D9
:101D50000126067041780027012905D00770022569
:101D60002846F8BD0220F8BD02214170A763206813
:101D7000016849084900016061462046FFF794FD6B
:101D8000E06A00282068016802D00E22114306E0B4
:101D90000A22114301602068016804229143016016
:101DA0002068016831430160DAE7000070B504463D
:101DB00000F066F90546601C02D00448007824183B
:101DC00000F05EF9401BA042FAD370BD6C01002008
:101DD000F0B500225DE0012393401C460C4057D033
:101DE00096082E4DB6007519AF68AC4695072E0FB4
:101DF0000F25B540AE463D400927FF06B84201D148
:101E0000002714E0264FB84201D101270FE0254FEB
:101E1000B84201D102270AE0234FB84201D103277B
:101E200005E0224FB84201D1042700E00527B74062
:101E3000AF4212D11E4D2E68A6432E606E68A64397
:101E40006E60EE68A643EE60AE68A643AE6065467F
:101E5000AD687446A5436446A56005685600032432
:101E6000B440A5430560D508AD002D182E6AAC46D8
:101E70005507EF0E0F25BD40AE4365462E62C5687F
:101E8000A543C56045689D4345608368A34383605F
:101E9000521C0B46D3409ED1F0BD00000000014013
:101EA0000004004800080048000C004800100048EA
:101EB00000040140F8B5002303240125BFE02E46AD
:101EC0009E40B44632407CD00E79B607B60F012E44
:101ED00001D0022E17D186682746B6465E00B7406D
:101EE00000967646BE43B646CF68009EB74076461B
:101EF0003743876046686746BE430F79FF06FF0F8A
:101F00009F40374347600E79F643B6070ED0C66848
:101F10002746B4465E00B646B7406646BE43B44662
:101F20008F687646B74066463743C7600E79B60776
:101F3000B60F022E14D1DE08B60036180096366AA7
:101F40005F07B446FE0E0F27B646B7406646BE434F
:101F5000B4460F697646B74066463743009E3762FF
:101F600006682746B4465E00B646B7406646BE439E
:101F70000F79B446BF07BF0F7646B7406646374372
:101F800007604E68B603B60F58D0304FBE692E4377
:101F9000BE61BE699F08F607F60F2D4EBF00BE1941
:101FA0000096B6680F27B4469E07360FB646B74070
:101FB0006646BE430927FF06B446B84202D1002751
:101FC00015E03BE0234FB84201D101270FE0224F3B
:101FD000B84201D102270AE0204FB84201D10327BD
:101FE00005E01F4FB84201D1042700E005277646DF
:101FF000B74066463743009EB7601A4EB6684F68D2
:102000009643FF0200D51643164FBE60FE684F6828
:102010009643BF0200D51643124FFE607E684F689C
:102020009643BF0300D516430E4F7E603E684F684F
:102030009643FF0300D516430A4A16605B1C0A68E4
:102040001646DE4000D03AE7F8BD0000001002401E
:10205000000001400004004800080048000C00484F
:1020600000100048000401400069084000D0012031
:102070007047002A01D0816170478162704700007B
:1020800001488068704700006C01002070B502466E
:1020900040325378202B1CD11378012B19D0012307
:1020A000137024245470046825689D4325600468D7
:1020B00025681E03B5432560046825680D43256027
:1020C00000680168194301602020507000201070E2
:1020D00070BD022070BD70B5024640325378202B8F
:1020E0001BD11378012B18D00124147024235370B2
:1020F00003681D68A5431D6005682B680F2636021E
:10210000B343090219432960006801682143016053
:10211000202050700020107070BD022070BD0000A3
:1021200070B5040006D025464035687800260028A2
:1021300002D005E0012070BD2E70204600F04AF864
:1021400024206870206801684908490001600F2157
:102150006068090688432168086121688A6801204F
:10216000C00382438A60E1680129A16808D0212266
:102170009202114322689160E168022902D005E0D1
:102180000143F7E701212268C902516021684A68CA
:102190000F4B1A434A602168CA688243CA6061696A
:1021A00020690843A169090208432168C860216ABF
:1021B000E069084321680860206801680122114332
:1021C00001606664202068702663AE70002070BDD8
:1021D0000080000210B586B0044614216846FEF760
:1021E00036F91349206888421FD1124C61690120D9
:1021F000800401436161616901400320059100028F
:1022000000901220019000200290032003900120F2
:10221000049069460848FFF74DFEE169012040053A
:102220000143E161E1690140059106B010BD000084
:102230000054004000100240000400480248816839
:1022400002788918816070476C01002010B506483B
:102250000168102211430160032000F007F800F02C
:1022600027F8002010BD00000020024070B5044691
:102270000D4D7D202978C000FEF7EBF801460B4894
:102280000068FEF7E6F800F015FC002809D1042CE0
:1022900007D200222146401E00F02AF800206C6080
:1022A00070BD012070BD00006C010020780100208D
:1022B00008B5084881690122114381618169114093
:1022C0000091C26901040A43C261C06908400090DC
:1022D00008BD000000100240002805DBC106C90E41
:1022E00001208840014908607047000000E100E0DB
:1022F00010B502F095F910BD10B50523DB01C31828
:102300000168012217249A666401002300190370F2
:102310004031888A10438882888A0222104388824A
:10232000184610BDF0B585B0040007D01520400157
:102330002618707A0025002803D006E0012005B099
:10234000F0BD3572204600F043F80320707220681B
:1023500002F046F8002101270CE02820484302192A
:102360001046203047720172C5729563D563491CCF
:10237000C9B2156460688842EFD8002210E02820B6
:10238000504300190146FF3161314D720A72CD721E
:102390006039FF3081308D67CD67521CD2B2056045
:1023A00060689042EBD82146142210316846FDF750
:1023B000CBFE0FCC103C02F009F8242005557772B3
:1023C000E069012802D12046FFF796FF0020B6E71A
:1023D00008B500680649884208D10648C26901214B
:1023E000C9050A43C261C0690840009008BD0000E9
:1023F000005C004000100240F8B504460068434D00
:10240000C00352D5E8690026C00007D4E969280452
:102410000143E961E9690140012600913C480168F6
:10242000C90510D40168821511430160FFF728FE29
:10243000074604E0FFF724FEC01B642824D8344874
:102440000068C005F6D5286A03273F02384020D02F
:102450006168394081421CD0286A2A6AB843012148
:1024600009040A432A622A6A8A432A622862C00748
:102470000FD0FFF705FE009008E0FFF701FE00997E
:10248000411A2448814201D90320F8BD286A8007F7
:10249000F3D5286A6168B84308432862002E04D047
:1024A000E869012109078843E8612078C00705D061
:1024B000286BA16880088000084328632078800783
:1024C00006D5286B032109048843E1680843286383
:1024D0002078800605D5286B1021884321690843A0
:1024E00028632068800305D5286B80218843A16973
:1024F000084328632088400505D5286B4021884380
:102500006169084328630020F8BD00000010024004
:102510000070004088130000F8B50F4606005ED03A
:102520003C4D2868C007C00FB84209D2286840084F
:102530004000384328602868C007C00FB8424ED119
:102540003068354C81070CD5400704D560680721F9
:102550000902084360606068F0218843B16808435D
:1025600060603078C0072BD07068012810D0022836
:1025700010D0032811D02168890700292FDA61685B
:102580008908890001436160FFF77AFD009010E03F
:10259000216803E021688901EFE7616B8903ECE7BB
:1025A000FFF76EFD0099411A1C48814201D90320B2
:1025B000F8BD60680C210840716889008842EFD13D
:1025C0002868C007C00FB8420BD9286840084000EF
:1025D000384328602868C007C00FB84201D00120E6
:1025E000F8BD3078400706D56068072109028843A6
:1025F000F1680843606000F027F86168084A09063E
:10260000090F515CC840074908600320FFF72EFE00
:102610000020F8BD00200240001002408813000096
:102620008250000878010020044805490068496884
:10263000044A4905490F515CC840704778010020A1
:10264000001002409250000870B5154A51680C20E5
:102650000B4603401348042B05D0134D082B03D021
:102660000C2B00D1284670BD8B02104C1B0FE45C74
:10267000D26A0E4B1207120F1033C9039A5C890FEE
:10268000022901D0032901D0002301E000232846BC
:102690000021FDF7C9FD214601F09CFF70BD00003F
:1026A0000010024000127A00006CDC026250000848
:1026B000FEB5040070D02078F94EFA4DC00748D01E
:1026C00068680007800F01281FD068680007800F26
:1026D000022804D16868C003800F022815D0616801
:1026E000012919D001208004002901D0052917D023
:1026F0002968B143296029688143296060680028FE
:102700001BD0FFF7BDFC074613E02868800320D5E7
:1027100060680028CED01CE0286830432860EDE7D0
:10272000296801432960F7E7FFF7AAFCC01B64286A
:1027300070D828688003F7D50BE0FFF7A1FC0746A7
:1027400004E0FFF79DFCC01B6428F1D828688003D3
:10275000F7D4207880073FD568680007800F14D031
:1027600068680007800F022804D16868C003800FE2
:1027700001280AD0E068002828681ED001210843FB
:102780002860FFF77DFC07460CE0286880070CD521
:10279000E068012800D108E080E1FFF771FCC01B70
:1027A0000228C5D828688007F7D52868F82188430B
:1027B0002169C900084328600EE0400840002860F5
:1027C000FFF75EFC074604E0FFF75AFCC01B022837
:1027D000AED828688007F7D42078000723D5E069B1
:1027E0000028686A0FD0012108436862FFF748FC9F
:1027F000074604E0FFF744FCC01B022898D8686A2B
:102800008007F7D50FE0400840006862FFF738FC0A
:10281000074605E0C3E0FFF733FCC01B022887D85A
:10282000686A8007F7D4207804274007002861DA17
:1028300000200190E869C00008D4E969B8060143A6
:10284000E961E96901400120009101909648016821
:10285000C90511D40168821511430160FFF710FC0E
:10286000009005E0FFF70CFC0099401A642898D806
:102870008D480068C005F5D5A06801280AD0002859
:1028800001D0052811D0286A400840002862286A33
:10289000B84302E0286A012108432862A0680028A2
:1028A00012D0FFF7EDFB00900AE0286A3843286257
:1028B000F0E7FFF7E5FB0099411A7C4881426ED8AA
:1028C000286A8007F5D50DE0FFF7DAFB009006E0F7
:1028D000FFF7D6FB0099411A744881425FD8286AF5
:1028E0008007F5D40198002804D0E9690120000789
:1028F0008143E9612078C00635D5606901280CD094
:10290000401D686B24D038436863686B4008400002
:102910006863FFF7B5FB074622E0686B38436863DE
:10292000686B012108436863FFF7AAFB074604E0D0
:10293000FFF7A6FBC01B022831D8686B8007F7D5CC
:10294000686BF8218843A169C900084368630AE0FD
:10295000B8436863F4E7FFF793FBC01B02281ED857
:10296000686B8007F7D42078800637D56868000741
:10297000800F032814D068680007800F022804D154
:102980006868C003800F03280AD0206A0028686B9B
:1029900016D030436863FFF773FB06460CE062E035
:1029A000686B80031AD5206A012877D116E0FFF7FB
:1029B00067FB801B022856D8686B8003F7D50DE0B3
:1029C000B0436863FFF75CFB064604E0FFF758FB83
:1029D000801B022847D8686B8003F7D4606A002800
:1029E00066D069680907890F022942D00126360698
:1029F0000228286805D0B0432860FFF741FB044651
:102A000033E0B0432860FFF73BFB074604E0FFF7E5
:102A100037FBC01B022826D828688001F7D4E86A53
:102A2000216B000900010843E862A16AE06A0843DB
:102A300069687B22D2039143084368602868304369
:102A40002860FFF71DFB044604E0FFF719FB001B9D
:102A5000022808D828688001F7D529E0FFF710FB85
:102A6000001B022801D90320FEBD28688001F5D48F
:102A70001EE00128F8D06868E96A0322D203A36A3D
:102A800002409A420AD10907226B090F914205D1EF
:102A90000F2189040840E16A884209D00120FEBD67
:102AA0000000010000100240007000408813000088
:102AB0000020F4E7094910B5401E884201D90120E1
:102AC00010BD074C60610321081F01F0A9FD002023
:102AD000A06107202061002010BD0000FFFFFF0063
:102AE00000E000E0F0B502462032137F012B21D038
:102AF000012515770223537706687468B368702739
:102B0000BC430F682743776000680B4CA04208D095
:102B1000AC07A04205D0094CA04202D0084CA0420C
:102B200004D180244968A34319438160557700206C
:102B30001077F0BD0220F0BD002C014000040040E1
:102B40000040014070B5040005D025462035687F5F
:102B5000002802D006E0012070BD00202877204622
:102B600000F014F802206877211D206800F07EFF35
:102B700001204034A071A877E87720706070A070C1
:102B8000E070207160716877002070BD10B586B06C
:102B9000044614216846FDF75AFC01222168920779
:102BA000154891421DD1C16901221143C161C1691A
:102BB000114005914269012149040A43426140697B
:102BC00008400590202002210090002003900191F0
:102BD0000291049109206946C006FFF76BF906B01F
:102BE00010BD064A9142FAD1C26989150A43C261F1
:102BF000C06908400590F2E7001002400020004044
:102C0000014620314A7F012A01D00120704702226B
:102C10004A770268D36801210B43D36000680B4AEE
:102C2000904208D08A07904205D0094A904202D0CB
:102C3000084A904204D182685207520F062A02D0F5
:102C400002680A430260002070470000002C014027
:102C50000004004000400140F8B505460446203518
:102C6000287F0026012817D00120287702206877C6
:102C7000226890687727FF23B8431B02984390602F
:102C80000868502838D00EDC20284FD006DC0028F9
:102C90004CD010281ED149E00220F8BD302845D084
:102CA000402817D13AE060282ED0702819D0012290
:102CB0001203801A0FD090420CD1CB684A68896801
:102CC000206800F02AFF20688168012292031143E6
:102CD000816000E0012601206877002028773046D7
:102CE000F8BDCB684A688968206800F016FF216843
:102CF000886838438860EEE7CA684968206801F050
:102D00001BF85021206806E0CA684968206801F075
:102D100024F86021206800F00BFFDCE7CA684968EE
:102D2000206801F009F840212068F4E72268014694
:102D30001046F0E770B586B0044614216846FDF7EA
:102D400086FB164E256809200023154972130224BC
:102D5000C006B5420CD14D6915434D6149690293D6
:102D600011400591402100910194039301210EE04F
:102D70000C4EB5420FD14D6915434D61496902931F
:102D800011400591102100910194039304210491B5
:102D90006946FFF78FF806B070BD000000040040E0
:102DA0000010024000200040F8B5064604462036D8
:102DB000307F00270D4601280ED001203077002AF1
:102DC0000CD0042A1BD0082A2FD00C2A3ED0012771
:102DD000002030773846F8BD0220F8BD206800F0AA
:102DE000AFFE2068816908221143816120688269F1
:102DF00004218A438261206881692A6912E020687F
:102E000000F0E2FE206882690121C9020A43826162
:102E10002068816901229202914381612068816961
:102E20002A69120211438161D2E7206800F00CFF89
:102E30002068C16908221143C1612068C269042168
:102E40008A43C2612068C1692A6912E0206800F0E3
:102E50003DFF2068C1690122D2021143C16120688F
:102E6000C269012189028A43C2612068C1692A6955
:102E700012021143C161ABE770B5040005D02546CD
:102E80002035687F002802D006E0012070BD0020B8
:102E90002877204600F014F802206877211D20686A
:102EA00000F0E4FD01204034A071A877E87720709D
:102EB0006070A070E070207160716877002070BD54
:102EC00008B500680549884207D10548C269022152
:102ED0000A43C261C0690840009008BD0004004078
:102EE0000010024030B504460223203000290AD0E9
:102EF00004290DD02046403008290ED04278012AFE
:102F000010D0012030BD827F012AFAD183770AE0F8
:102F1000C27F012AF5D1C37705E00278012AF0D1FA
:102F2000037000E043700122206800F0E9FD144ABC
:102F300020681449904207D0884205D0124B98422D
:102F400002D0124B984204D1436C0125ED032B4370
:102F5000436420680123904207D09A07904204D02E
:102F60000B4A904201D0884204D181684907490F39
:102F7000062902D0016819430160002030BD00001D
:102F8000002C014000400140004401400048014045
:102F900000040040704770B504001BD02420E06797
:102FA0002068016849084900016020680025056023
:102FB0002068456020688560204600F059F820466A
:102FC00080304560E5670560256665666034257676
:102FD000002070BD012070BD10B50446FFF7DBFF77
:102FE00006492068884201D101F0D8F904492068D7
:102FF000884201D101F0DEF910BD00000038014027
:103000000048004010B5040003D0E06F002802D053
:1030100007E0012010BD002178200155204600F076
:1030200053F82420E06720680168490849000160DE
:10303000204601F067F80128ECD0606A002802D031
:10304000204600F0D5FE206841680922D202914353
:103050004160206881682A2291438160206801686C
:10306000012211430160204600F028FF10BD00003E
:1030700010B50446104A01681048914209D181698F
:103080000122920391438161032149020920C00674
:1030900009E00B4A91420ED1C16901229204914389
:1030A000C16130210748FEF793FE606FFEF7AAFD6D
:1030B000206FFEF7A7FD10BD003801400010024050
:1030C0000048004000080048F0B587B004461421CD
:1030D0006846FDF7BCF9524F266852480223012189
:1030E00003220025BE4249D187698E033743876199
:1030F00087693740059747694E0437434761406900
:1031000002913040059050020090049109200193F3
:1031100003926946C006FEF7CDFE4348434E21C6E2
:103120003560B560F56035618020756170603F483D
:10313000083EFEF7DBFD002801D0FEF7C9FB3C4F3F
:103140003868391508433860666737487462394E05
:10315000143830601020B560706035617561B561FC
:103160008020F561F0603046FEF7C0FD002801D0F8
:10317000FEF7AEFB3868012149024BE02E4FBE42FC
:103180004CD1C7690126B6043743C761C7693740C8
:10319000059747697600374347614069049130409D
:1031A0000590302003926E4629C669462348FEF7F3
:1031B00081FE1D48224E283821C63560B560F56075
:1031C00035618020756170601D48083EFEF78EFDF8
:1031D000002801D0FEF77CFB154F3868B902084380
:1031E0003860666710487462164E3C3830601020B4
:1031F000B560706035617561B5618020F561F06022
:103200003046FEF773FD002801D0FEF761FB3868F9
:1032100001218906084338602667746207B0F0BD53
:10322000003801400010024058000240E80600202B
:10323000000001402C070020004800400008004822
:1032400070070020B407002070B580231B58202B86
:1032500001D0022070BD00290BD0002A09D0012422
:1032600083682403A34206D10369002B03D1CB0753
:1032700001D0012070BD00230366046863681B024F
:103280000BD5EFF31083012585F3108825680126FF
:10329000B6063543256083F3108800F0E3FF70BD68
:1032A000F8B5074600681B49884232D11A4D0026FE
:1032B000A8691A4C00280AD0012812D0022818D078
:1032C00003281BD0204601F06DFBAE6114E020788E
:1032D000022803D10120611CA86108E001220F49E6
:1032E00014E06078F0280CD10220A11CA861012212
:1032F0000CE00320E41CA8612146F8E7E0780828E8
:1033000001D0AE61EAE70422211DAA613846FFF729
:103310009BFFF8BD00380140080100201413002075
:103320007047FFB50446C06F83B017460D4620288E
:1033300002D0022007B0F0BD002D0BD0002F09D025
:103340000120A1680003814206D12069002803D131
:10335000E80701D00120EDE7002184200151212060
:10336000E067FEF78DFE2646403601903782778271
:103370000120A1680003814202D12069002802D007
:103380002F46002511E000270FE000228021204673
:1033900000F0BEFF002815D1002F17D02168387823
:1033A00008857F1C708A401E7082708A019B0028ED
:1033B00006980090E9D100224021204600F0A8FFA5
:1033C00000280AD02020E0670320B3E7288821687E
:1033D000C005C00D0885AD1CE4E72020E067002093
:1033E000A8E700000FB470B508A8007D00281AD027
:1033F0006846007C022816D16846827C1A481A4B1F
:10340000C2606846047DA13A5D68184818491300F7
:1034100001F0F8F80516131316190900012100E050
:1034200000214170856070BC08BC04B018470120C1
:1034300000E0002048708D60F5E7002CF9D0F6E739
:10344000002CEDD0EAE7084C0021943409482160B3
:103450006060084601F00CF86068FDF76DFF0146FA
:10346000012001F005F8DEE7100000204C010020EB
:103470005C0100200000B442FEE7000010B50446E5
:103480000748C069022809D00649FA2001F008F966
:10349000002803D02146042000F0EAFF10BD000000
:1034A00084000020CC00002010B50848C069022824
:1034B0000AD07D200649C00001F0F2F8002803D0B0
:1034C0000021052000F0D4FF10BD00008400002082
:1034D000D000002010B509480021816041600161E1
:1034E000C160816141610162C16124210448FCF72E
:1034F000AEFF24210348FCF7AAFF10BDDC0000202A
:10350000BC0D0020F80700200EB5002127480091CF
:1035100001910291244A41600260816001220423EA
:103520000C300EC0017041708170FF23C170C23336
:103530004360034681600833197102611838FEF751
:103540005FFA002801D072B6FEE70A200090012041
:10355000000301900004029069461448FEF7BAF98E
:10356000002801D072B6FEE70B20009069460F4894
:10357000FEF7B0F9002801D072B6FEE70C200090EB
:1035800069460A48FEF7A6F9002801D072B6FEE7A0
:103590000D20009069460548FEF79CF9002801D0EF
:1035A00072B6FEE70EBD0000002401407C01002041
:1035B00030B587B014216846FCF749FF21484269BD
:1035C000012149040A43426142690A400592426965
:1035D00089000A43426142690A4005924269C90072
:1035E0000A43426142690A400592426909110A434D
:1035F000426142690A400592426989000A43426178
:1036000040690124084005900F200090019469460C
:1036100002940D48FEF74EFC10200925ED0600909F
:103620000194694602942846FEF744FCE0030090AA
:1036300000200190694602942846FEF73BFC07B043
:1036400030BD0000001002400004004810B51348CF
:1036500011490160124941600021816001614161AD
:1036600081610122C161C2600162FEF759FD00283B
:1036700001D072B6FEE700210848FEF707FD0028DA
:1036800001D072B6FEE700210448FEF724FD0028B1
:1036900001D072B6FEE710BD00540040BC0100200E
:1036A0000E09002010B586B00024009401211848AE
:1036B00001940294039404948907059412C0046051
:1036C000144984604160802101610838FFF73AFAAB
:1036D000002801D072B6FEE70120400300900F20C1
:1036E00003900194029469460948FFF7B5FA00284F
:1036F00001D072B6FEE7049404A905480594FFF7CB
:10370000F1F9002801D072B6FEE706B010BD000046
:10371000100200208813000010B58AB0002407941E
:103720001C2168460894FCF792FE1649164812C000
:10373000046084601549046141600838FFF79CFB10
:10374000002801D072B6FEE7079407A90E48089436
:10375000FFF7C8F9002801D072B6FEE7602000909C
:10376000019402940022694604940748FFF71CFB69
:10377000002801D072B6FEE70348FFF7DBFA0AB073
:1037800010BD00000004004058020020FFFF0000B0
:1037900010B510480E4901604B21C901416000215C
:1037A0008160C16001618161C1610C22016242617D
:1037B0004162FFF727FC002801D072B6FEE7002225
:1037C00011461B20FEF794FD1B20FEF785FD10BD62
:1037D00000380140A002002010B50C480A490160E1
:1037E0004B214902416000218160C160016181611A
:1037F000C1610C22016242614162FFF703FC0028B3
:1038000001D072B6FEE710BD00480040280300203A
:1038100030B5234D91B02C4628699434002817D038
:10382000012813D1FF2120466931203801F0EAF840
:103830002046203800691B49884207D100202861B2
:10384000194860605A21012000F012FE11B030BD0D
:1038500013482168543001F0CDF96068FDF76CFD24
:1038600001460F48743001F0CDF8FDF7CDFE6868D1
:10387000FDF70CFFA869FFF701FEFFF715FE00F04A
:1038800019F800F0B7FD06A801F056F815220AA9AC
:103890006846FCF759FC06A80FC8FFF7A3FDD5E75B
:1038A00010000020000034430000B442FEE77047DF
:1038B00070470000F0B52F4887B0C069002857D185
:1038C00004902D484178002904D08078002801D147
:1038D00002200490284810304178002904D08078D4
:1038E000002801D1012004902448006801283FD11C
:1038F0002348FF2601684F20A139224D224CC043A6
:10390000C3360B0000F07EFE040303080834502782
:103910001C4D1D4C322603E0B4270020241D2D1D14
:10392000FDF76CFD039002903846FDF767FD0690A9
:10393000014604A800270090334601972046029ACA
:10394000FDF7D4FE0A213046FCF78DFDFDF756FD4C
:10395000034604A806990090039A0197204600F0B8
:1039600015F80097002321462846059AFDF730FEFA
:1039700007B0F0BD840000204C010020C8000020EA
:103980001C000020D4000020A4000020F8B504464C
:1039900006980027006816460D4601280FD0022819
:1039A0000CD11946206801F0F3F9394601F0F0F91D
:1039B0002946206001F0B4FA00D82560F8BD194608
:1039C000206801F0E5FA394601F0E2FA0546206088
:1039D0003946304601F0DCF9294601F0A1FAEDD86C
:1039E0002660F8BD10B5FEF729FC10BD10B598B0E3
:1039F00034216846FCF72BFD00241494159416948A
:103A00001C210DA81794FCF722FD32200090012004
:103A10000390089005901020049006900994684641
:103A2000FEF746FE002801D072B6FEE7072014908C
:103A30000320159016940121179414A8FEF76CFD2D
:103A4000002801D072B6FEE706480D900F9411943D
:103A500013940DA8FEF7D0FC002801D072B6FEE743
:103A600018B010BD2100020070470000F0B50268D8
:103A70001D4B0124A4071D4D984203D0A04201D044
:103A8000A84203D17026B2434E683243184E194FF4
:103A900098420DD0A0420BD0A84209D0164CA042AB
:103AA00006D0B04204D0B84202D0144CA04204D197
:103AB00003242402A243CC6822438024A2434C69FD
:103AC000224302608A68C2620A688262984206D013
:103AD000B04204D0B84202D0084A904201D10969EC
:103AE000016301214161F0BD002C01400004004050
:103AF00000400140004401400020004000480140D7
:103B000010B5CB06DB0E0121046A99408C43046298
:103B1000016A9A401143016210BD30B58468FF25E7
:103B20002D021B021343AC430B432343836030BD80
:103B3000826870239A430A4307210A4382607047D0
:103B4000F0B5026A520852000262056A436882694F
:103B50007024A24392080C689200144302229543F9
:103B60008A68164E2A43144DA84207D0B04205D0A9
:103B7000134FB84202D0134FB84206D10827BA43B8
:103B8000CF681743042297433A46A84207D0B04271
:103B900005D00B4DA84202D00A4DA84206D10325FC
:103BA0002D02AB434D691D438B692B4343608461F8
:103BB000496841630262F0BD002C014000400140B1
:103BC000004401400048014070B5026A10239A4346
:103BD0000262056A4268836973242402A3430C6865
:103BE00024021C4320239D438B681B012B43124D51
:103BF000A84208D11D46CB688026B5431B012B4344
:103C00004025AB4308E00D4DA84205D00C4DA8421D
:103C100002D00C4DA84208D10325AD02AA434D693C
:103C2000AD0015438A6992002A4342608461496865
:103C30008163036270BD0000002C01400040014020
:103C4000004401400048014070B5026AFF2301337F
:103C50009A430262056A4368C2697024A2439208CB
:103C60000C68920014430122520295438A681202A2
:103C70002A43124DA84208D11546CA68C614B54356
:103C800012022A430515AA4308E00D4DA84205D0AB
:103C90000C4DA84202D00C4DA84208D103252D039B
:103CA000AB434D692D011D438B691B012B434360C1
:103CB000C4614968C163026270BD0000002C01400C
:103CC00000400140004401400048014030B5026A14
:103CD00001231B039A430262046A4268C369732585
:103CE0002D02AB430D682D021D4301235B039C4352
:103CF0008B681B0323430C4CA04208D00B4CA04202
:103D000005D00B4CA04202D00A4CA04205D10124A0
:103D1000A403A2434C69A40122434260C5614968DF
:103D20000164036230BD0000002C014000400140EE
:103D3000004401400048014030B5036A046A640849
:103D4000640004628469F025AC43120122430A2412
:103D5000A3430B438261036230BD30B5036A102474
:103D6000A34303628469036A0F252D031203AC4346
:103D70002243A024A343090119438261016230BD9B
:103D8000F8B50D46064600681449154C174688429A
:103D900007D16069202812D012482946007800F027
:103DA00075FD11493068884208D1E06920280DD09E
:103DB0000E483A462946007800F068FDF8BD6423B5
:103DC00029463046A560FFF7ACFAEAE764233A4695
:103DD00029463046A560FFF7A4FAF8BD0038014037
:103DE00008010020605000080048004061500008B1
:103DF00010B5818CC90707D001684A6801235B04AC
:103E00009A43836A1A434A60818C890707D50168FF
:103E10004A6801231B049A43C36A1A434A60818C8F
:103E2000490707D501684A6801239B049A43036B3D
:103E30001A434A60818C090707D501684A68012343
:103E4000DB039A43436B1A434A60818CC90607D54A
:103E50000268916801231B039943836B19439160A6
:103E6000818C890607D501688A6801235B039A4320
:103E7000C36B1A438A60818C490612D503685A685D
:103E800001210905046C8A4322435A60026C8A426C
:103E900007D10268516803235B059943436C1943BA
:103EA0005160818C090607D501684A680123DB044B
:103EB000806C9A4302434A6010BD0000FEB507467D
:103EC0000025803704467D60FEF7DAF8019020680F
:103ED0000068264600076036002819DA2748009057
:103EE0000121002249052046019B00F011FA00281B
:103EF0000ED0EFF31080012181F3108821680A6849
:103F000080239A430A6080F310882020E06729E02C
:103F100020680068400728D5184800900121002239
:103F200089052046019B00F0F3F900281DD0EFF32E
:103F30001080012181F3108821680A68FF23213352
:103F40009A430A6080F31088EFF31080012181F317
:103F5000108821688A68520852008A6080F31088AD
:103F60002020386035760320FEBD2020E0673860D1
:103F70002566656635760020FEBD0000FFFFFF0167
:103F8000F8B5446AE06F254680352E682168896857
:103F900000270906002906DA212804D152200753F8
:103FA000204600F09FF820688068400606D5222E43
:103FB00004D15A200753204600F064F868681021A5
:103FC000084368602046FFF707F8F8BD70B5014662
:103FD0008969406A0022202938D05A210A52EFF319
:103FE0001081012383F3108803681C68FF250135C5
:103FF000AC431C6081F31088EFF31081012383F33D
:10400000108803689C68640864009C6081F31088D1
:10401000EFF31081012383F3108803689C68402527
:10402000AC439C6081F31088202380210B50016EEB
:1040300001290BD1EFF31081012383F3108803686A
:104040001C681025AC431C6081F310884266016E29
:10405000012902D0FFF724F970BD5821095AFEF753
:1040600099FF70BD10B5406A01214166016E0129BA
:1040700002D0FFF755F910BD5821095A4908FEF73B
:1040800089FF10BD10B5EFF31081012282F3108873
:1040900002681368FF242134A343136081F310885E
:1040A000EFF31081012282F31088026893685B08A5
:1040B0005B00936081F31088016E01290BD1EFF34F
:1040C0001081012282F31088026813681024A34330
:1040D000136081F31088202280210A50002101669C
:1040E000816610BD10B5EFF31081012282F31088B4
:1040F00002681368C024A343136081F31088202151
:10410000C16710BD70B5044680682169E269084343
:10411000616900251143226808431168494B194021
:104120000143116020684168032212039143E26851
:1041300011434160A169206A2268084391680B23FA
:104140001B029943014391603F4A20683F499042D6
:104150000AD1086B8007800F22D0012816D00228D0
:1041600016D003281ED10FE0394A904212D1096BB4
:1041700003200004014016D001200004091A05D0D4
:10418000091A05D081420DD102210CE004210AE078
:10419000082108E02F49884202D02F49884201D1E6
:1041A000002100E010210120E369C0032B4A2C4EBE
:1041B000834222D1002906D0022907D0042907D042
:1041C000082935D108E0FEF72FFA03E0104603E096
:1041D000FEF73AFA002830D0616840004A0880189B
:1041E000FCF737F901461039B14221D81C49491C66
:1041F00001400007400F08431DE0002906D00229B6
:1042000007D0042907D0082912D108E0FEF70CFADC
:1042100003E0104603E0FEF717FA00280DD06168AE
:104220004A081018FCF715F901461039B14201D9B6
:10423000012502E080B22168C8600020A066E06627
:10424000284670BDF369FFEF0038014000100240BE
:104250000044004000480040004C004000127A003A
:10426000EFFF000070B50446416540300283002036
:1042700025468035686022212960616F002919D0A8
:10428000204B8B62636F2049D962636F1F491963AA
:10429000616F13464863666D216832462431606F52
:1042A000FDF74EFD002805D0102068602020286012
:1042B000012070BD206900280CD0EFF3108001218F
:1042C00081F3108821680A68FF2301331A430A60CA
:1042D00080F31088EFF31080012181F310882268A9
:1042E00093680B43936080F31088EFF3108081F3A1
:1042F000108821688A6840231A438A6080F31088F6
:10430000002070BDCD3F000865400008813F0008D7
:10431000FFB5064681B080360546044660350A9FE3
:104320002EE0781C2CD0FDF7ABFE0499401AB84261
:1043300014D8002F12D020680168490720D5C16920
:10434000C94309070CD4082707622046FFF79AFEE5
:10435000776000202876012005B0F0BD0320FBE740
:10436000C069C04300050BD401202168C002086267
:104370002046FFF787FE2020706000202876EDE7BA
:104380002068C1690298884305D0002103988142C2
:10439000C7D00020E0E70121F8E7000010B50122B6
:1043A00002490348FEF750FF10BD0000141300201F
:1043B000A002002010B5012202490348FEF744FF85
:1043C00010BD0000381300202803002001214030D8
:1043D0000180002101808180018208467047000031
:1043E0004030034902888A43028000207047000061
:1043F00080BF0000084A10B5547810469470103001
:104400004378064983700968002C00D19160002B25
:1044100000D1816010BD00004C010020140000207C
:1044200070B50F4C0546A068854216D00D481E2178
:1044300005600D48A560FCF708F8002D0ED0012D91
:104440000BD121690848FBF771FF074800F00AF912
:10445000014622780548FFF793FC70BDE168F1E75B
:1044600028010020C80000205C130020A0020020CA
:10447000F8B50D4606461E214848FBF7E6FF4748BB
:104480000D211E30FBF7E1FF444811213230FBF7CC
:10449000DCFF434C002E34D0012E3BD0042E6DD0D7
:1044A000052E6AD13D48E169FBF740FF3D4E0222EF
:1044B0006946306900F01CF9384869461E30FBF740
:1044C0005BFF364838A11E30FBF756FF02226946D3
:1044D000F06800F00DF9314869461E30FBF74CFFDB
:1044E0002E4832A11E30FBF747FF02226946B06812
:1044F00000F0FEF8294869461E30FBF73DFF2CA16D
:1045000013E026486169FBF711FF244904221E319C
:1045100028463FE02148A169FBF708FF1F49032215
:104520001E31284600F0E4F822A11C481E30FBF79B
:1045300023FF1A4821A13230FBF7F8FE002D04DAE0
:1045400016481FA13230FBF717FF14491E310846E9
:104550001430FBF711FF114818A13230FBF70CFFA4
:104560000E490E483231FBF707FF0C4800F07AF88D
:10457000014622781348FFF703FCF8BD0748216A7B
:10458000FBF7D4FE10492846FBF76DFF08460349A8
:1045900005221E3100F0ACF80CA1C6E75C13002028
:1045A00028010020A4000020483A00004D3A0000F5
:1045B0005300000020646567000000002200000036
:1045C0002D000000A00200201027000020696E636B
:1045D00068000000F8B5040C8BB2264682B25E4338
:1045E0000D0C1046370C58433604801900217941D0
:1045F00016466E43370C36048019794126466E43C1
:104600008919F8BD30B47446641E2578641CAB4229
:1046100000D21D46635D5B00E31830BC1847000004
:104620008307FF22DB0E9A408907090E9940002874
:1046300008DB830809489B001B181868904308434F
:10464000186070470007000F0838830804489B0073
:104650001B18D86990430843D861704700E400E014
:1046600000ED00E010B504460B48006800F04AF980
:1046700000F0EEF8094A0021506001E04354491C63
:10468000635C002BFAD15068FF23435444186370D5
:10469000A370C91C117010BD10010020280100205A
:1046A00010B5094A0B685268934204D90024E443C8
:1046B000E31A9B1800E0D31A834202D301200A6058
:1046C00010BD002010BD000010000020074A5268F5
:1046D000914204D90023DB43591A891800E0511A8A
:1046E000814201D301207047002070471000002054
:1046F00070B516460D46002800DA4042002405E059
:104700000A21FBF7B0FE30312955641C0028F7D18F
:104710003020B44202DA2855641CFAE721462846C4
:1047200000F062F900202855204670BD08B5FDF75D
:104730008DFDFFF75BF9FEF73BFF40484169012221
:104740001143416140691040002200901146092048
:10475000FDF7CEFD0920FDF7BFFD002211460A201E
:10476000FDF7C6FD0A20FDF7B7FD002211460B201C
:10477000FDF7BEFD0B20FDF7AFFDFEF7C5FEFEF712
:1047800065FFFEF78FFFFEF7C7FFFFF701F8FFF7A2
:1047900023F82C482A4901600821416002218160E8
:1047A000016100218161C1610162FDF7BBFD00284B
:1047B00001D072B6FEE7FEF78DFEFFF7EFFDFFF7C3
:1047C000F9FD00212048FEF78DFB204801220068FA
:1047D00081880068FDF74DFC1C48012220300068EC
:1047E00081880068FDF745FC17484838FEF708FA4D
:1047F0000020FFF715FE7D200001FDF7D7FA01200C
:10480000FFF70EFEFDF73CFC104C543C254694355A
:10481000A0602868FCF790FD01460020FFF728FE05
:104820006868FCF789FD01460120FFF721FEFDF7CE
:1048300027FC6060FEF7ECFFF9E700000010024083
:10484000005C0040B00300205802002064000020FB
:104850000C4900200A5C002A04D0401CC0B2242865
:10486000F8D30DE001220A54242809D2064A11780F
:10487000491E1170282148430249243140187047CD
:1048800000207047F8070020DC00002070B503000E
:10489000FFF7B8FE071505070A0D10131500174C92
:1048A0000DE0164C241D0AE0144C203407E0134C94
:1048B000243404E0114C103401E0104C1434002373
:1048C0004B6223680E4E002B01D0012409E02160C9
:1048D000032802D0042800D0327070BD641C2B461F
:1048E000E4B25D6A002DF9D15962032802D0042890
:1048F00000D032550148001F847070BDE0000020D8
:10490000BC0D00200A4A002128234B439B188342F8
:1049100008D1074A0020243A505406490878401C20
:1049200008707047491CC9B22429EDD370470000B4
:104930001C080020DC000020F0B595B007460020E0
:1049400008A9154D08716878002821D0282213493C
:104950000AA8FBF7F9FB114E0024252060438019BB
:10496000014625312522FBF713FD641CE4B2232CFC
:10497000F3D3252269460A48FBF70AFD68780AA99D
:10498000401E687025223846FBF702FD15B0F0BDC9
:1049900025226946F7E70000DC000020E00D00203A
:1049A000EF12002070B50E4C064660782521484372
:1049B0000C4D24214019FBF748FD60782521484320
:1049C000401924223146FBF7E3FC6078252141435E
:1049D0004919012220310A71401C607070BD00002D
:1049E000DC000020E00D002010B50022491E05E08B
:1049F000835C445C84544354491E521C8A42F7DB56
:104A000010BD0000F8B50446C0690026574D0F469A
:104A1000002841D001287DD00846FCF7EFFC00902B
:104A2000216900F0B5FAFCF787FC002800DA404263
:104A3000FCF749FA00224E4BFBF7A6FF00224D4B34
:104A4000FCF74CFAFCF7C4F9484F74377969490808
:104A500088426FD93846283881880068FDF704FB02
:104A6000002869D00098216900F092FA0121C90557
:104A7000884261DB39463C396420FFF711FE00288B
:104A80005CD03D483946203138614860B42101206E
:104A9000E661FFF7EDFC51E03848407800283BD153
:104AA00037484078002837D12069FCF745FCB842E8
:104AB00033D02E49FF203C31F530FFF7F1FD0028BF
:104AC0002AD03846FCF79AFC216900F061FAFF21F0
:104AD000C905C84220688188006807D30022FDF715
:104AE000C8FA606800228188006806E00022FDF7AD
:104AF000C0FA6068012281880068FDF7BAFA666131
:104B00002068002281880068FDF7B3FA0120E06187
:104B1000686800E004E0A061F8BD6868E863F8BD7B
:104B200021461831C820FFF7BBFD0028F7D002202E
:104B3000E061F8BD16E0FFE76868A8630B49012053
:104B40008C31FFF7ADFD0028F3D0387DC207074850
:104B5000D20F443081880068FDF78BFA7869401CD9
:104B60007861E6E700983861E661E2E7100000202E
:104B7000008076400000B940000034434C01002022
:104B80005C01002070B504460D460846FCF7D4FBD6
:104B9000216802000868898810D0FF22D205D5421A
:104BA0001DD30022FDF765FA606800228188006845
:104BB000FDF75FFA0120C007454002E00122FDF742
:104BC00058FA0A492846FCF707FB094900F050F952
:104BD000FCF7D8FB0146A06800F0BEF870BD0022CB
:104BE000FDF747FA606881880068E7E70000B44392
:104BF0000000C84510B504460846FCF7C3FA054A4C
:104C0000054BFCF76BF9FBF7D5FC0146204600F09D
:104C10001FF810BD666666666666394010B50446C4
:104C20000846FCF7AFFA074A074BFBF7ADFE002238
:104C3000064BFCF753F9FBF7BDFC01462046FFF796
:104C4000A1FF10BD814EE62E0BEB6940008076403F
:104C5000F3B53F483D4C407881B00D46002873D1F4
:104C60003C48407800286FD12846E16900F0D6F82A
:104C700025D02946206A00F0D1F820D0E1692846E5
:104C80000F4600F085F9FCF757FB061E00DA70426C
:104C9000FCF7B4FB616AFCF79FFAFCF773FBE06278
:104CA000300000D57042FCF7A9FBA16AFCF794FA2A
:104CB000FCF768FB2762E561206360686063294652
:104CC000206A00F0ABF83FD02946206A00F028F9AE
:104CD00001D2206B00E0E06A616BFFF7F7FC00286F
:104CE00002D0294625622CE0616B6068814204D9BC
:104CF0000022D243511A0E1800E0461A2946206AB3
:104D000000F00EF90ED232213046FBF7A2FB322121
:104D10004843FCF773FBA16A00F0AAF8216A00F08F
:104D20002BF90DE032213046FBF793FB322148434B
:104D3000FCF764FB616A00F09BF8216A00F028F838
:104D400001460198FFF76AFFFEBD00001000002039
:104D50004C0100205C01002070B500240A46054685
:104D6000002906D0A96A0948491C5143FBF771FB89
:104D7000441E2046FCF7AFF80022D243FCF7D2F9DC
:104D8000FCF75CF86863EC62204670BD006CDC02E6
:104D900070B501250400ED074C4020D4441A01D21F
:104DA000001B0919C60D4B00F2B2FF2A29D01B0EB9
:104DB0002CD000020C02D31A2C43DC4028430519E6
:104DC00010D2280A02D3401C6D0611D0761EF605BB
:104DD0008019FF2A00DA70BDC00DC00570BD6940A2
:104DE00000F0DCF801200543C541521C761CE8E7C1
:104DF00064089C40C90161408900E7D10124A043B7
:104E0000E4E71B0E440200D0034870BD002AFCD129
:104E1000C00FC00770BD00BF0000C07F01230200AB
:104E2000DB050A430DD4DA4203D49A4207D4884200
:104E30007047D84214D4D94212D488427047804275
:104E40007047DA4203D59A42F9D5814270475B0038
:104E50004200DA4204D24A00DA4201D2814270476B
:104E600010B5024AFCF7D6FA10BD00BF09001204C3
:104E700070B5420064414B005C41120E39D01B0EEC
:104E800038D0FF2A3CD0FF2B3AD040024902400ADA
:104E9000490A060045184E43000A090AD218484339
:104EA000ED017F3A0104731A4019190C4318990F48
:104EB00004D001215B0849075B1A521CD80904D3AE
:104EC000401CF50301D19D0607D0FF2A08D2D50565
:104ED00006D0E4072043401970BD0125A843F4E73C
:104EE000002A01DCE00770BD2402FF202043C0053A
:104EF00070BD1B0EFF2A03D0FF2B01D0E00770BD51
:104F0000FF2645003606B54206D84D00B54203D807
:104F1000D218FF2A00D0E7E7004870BD0000C07F2C
:104F200001230A00DB0502430DD4DA4203D49A427E
:104F300007D481427047D94214D4D84212D4814256
:104F4000704789427047DA4203D59A42F9D58842C0
:104F500070475B004A00DA4204D24200DA4201D2D2
:104F6000884270474840414010B5024A4840FCF72B
:104F700051FA10BD0900160470B50125ED0768400F
:104F800004004C4002D5694000F008F8FFF706FF26
:104F900070B501250400ED074C4022D4441A02D21A
:104FA0006C40001B0919C60D4B00F2B2FF2A4BD012
:104FB0001B0E50D000020C02D31A2C43DC40A84335
:104FC000051B05D5AD0019D36D08761E521E37D0CE
:104FD000F605280A01D2801970BD70416D0603D014
:104FE00070BD6940FFF7DAFE9C400902614049004C
:104FF00001D0401E70BD0124A04370BD6D081DD0BE
:1050000001202B0C01D12D0410302B0E01D12D02CB
:1050100008302B0F01D12D01001DAB0F01D1AD00C8
:10502000801CEB0F01D16D00401C6D00361A121A66
:10503000680AF5054019012A02DB70BD002070BD29
:10504000C036300AC00770BD1B0E440201D1FF2BD1
:1050500000D1024870BD002AF0D070BD0000C07FB2
:10506000010302030405060708090A0B0C0D0E0FC5
:1050700010100102030405060708090A0B0C0D0EA7
:105080000F100000000000000000010203040607EA
:105090000809000000000102030480807F7E7D7CFF
:1050A0007B7A7978777676757473727171706F6EBA
:1050B0006E6D6C6C6B6A6A69686867666665646465
:1050C000636362616160605F5F5E5E5D5D5C5C5BEF
:1050D0005B5A5A595958585757565655555554545E
:1050E000535352525251515050504F4F4F4E4E4DBC
:1050F0004D4D4C4C4C4B4B4B4A4A4A494949484808
:105100004847474747464646454545444444444347
:1051100043434342424242414141818283848586E6
:105120008788898B8C8D8E8F919293959697999A7B
:105130009C9D9FA0A2A3A5A7A8AAACAEB0B2B3B5F0
:10514000B7B9BCBEC0C2C5C7C9CCCED1D4D7D9DCD3
:10515000DFE2E6E9ECF0F3F7FAFE0000544D5F6D94
:1051600061696E2E74302E7478743D00544D5F6DFD
:1051700061696E2E74312E7478743D00544D5F6DEC
:1051800061696E2E74332E7478743D00544D5F6DDA
:1051900061696E2E74342E7478743D007061676599
:1051A00020544D5F6D61696E00000000706167659D
:1051B00020544D5F696E697400000000DC510008E6
:1051C000000000207C0100007A1500084C52000805
:1051D0007C0100208C180000040100081112044317
:1051E00048011908F2021AFF01391C0112223F1A64
:1051F000400401195B4810081152801B2008041953
:10520000640A1240501AB81C2AC02012204A408456
:105210000312B442D91419B05A0408195C011502DA
:105220002C24E9FD29B5D908411AFF0113AC511B03
:10523000089C041A5C041A6C041A7C041A8C04C1BD
:0C524000F23C291029FC39B44113127A09
:04000005080000C12E
:00000001FF
